:100000000C9462000C948A000C948A000C948A0070
:100010000C948A000C948A000C948A000C948A0038
:100020000C948A000C948A000C948A000C948A0028
:100030000C948A000C948A000C948A000C948A0018
:100040000C949F060C948A000C940F070C94E906FC
:100050000C948A000C948A000C948A000C948A00F8
:100060000C948A000C948A000000000024002700F1
:100070002A0000000000250028002B0000000000DE
:1000800023002600290000000008000201000003F0
:10009000040700000000000000000404040404043D
:1000A0000404020202020202030303030303010227
:1000B00004081020408001020408102001020408F6
:1000C0001020410711241FBECFEFD8E0DEBFCDBF07
:1000D00022E0A4E3B1E001C01D92AC31B207E1F728
:1000E00011E0A0E0B1E0E8EDFAE102C005900D9268
:1000F000A433B107D9F710E0C2E6D0E004C02197DD
:10010000FE010E94720BC136D107C9F70E94C807D1
:100110000C946A0D0C940000CF92DF92EF92FF9244
:100120001F93CF93DF93EC018E818C3009F44DC087
:1001300038F48B30E1F060E070E080EC9FE73DC088
:1001400085518230C0F71A81612F70E0762F6627C3
:1001500066277F778B81682B90E080E00E949D0965
:100160002DEC3CEC4CEC5DE30E94DA0948C06A815E
:1001700070E090E080E00E949D096B017C01CB81E2
:10018000C7FF0AC0AC019B0160E070E080E89FEB14
:100190000E94CF0A6B017C01CF706C2F70E090E061
:1001A00080E00E949F092DEC3CEC4CEC5DE30E944A
:1001B000DA09A70196010E94D00ADF91CF911F9121
:1001C000FF90EF90DF90CF9008951A81612F70E03B
:1001D00090E080E00E949D096B017C016B816F7053
:1001E00070E090E080E00E949F092DEC3CEC4CEC2C
:1001F0005DE30E94DA09A70196010E94D00A17FF69
:10020000DCCF9058DACFFC01538D448D252F30E0A0
:10021000842F90E0821B930B541710F0CF96089513
:1002200001970895FC01918D828D981761F0A28D40
:10023000AE0FBF2FB11D5D968C91928D9F5F9F7306
:10024000928F90E008958FEF9FEF0895FC01918DBC
:10025000828D981731F0828DE80FF11D858D90E029
:1002600008958FEF9FEF0895FC01918D228D892FC6
:1002700090E0805C9F4F821B91098F7399270895AE
:10028000FC01A48DA80FB92FB11DA35ABF4F2C910B
:10029000848D90E001968F739927848FA689B78902
:1002A0002C93A089B1898C91837080648C93938DF9
:1002B000848D981306C00288F389E02D80818F7D9C
:1002C00080830895EF92FF920F931F93CF93DF9354
:1002D000EC0181E0888F9B8D8C8D98131AC0E88982
:1002E000F989808185FF15C09FB7F894EE89FF8951
:1002F0006083E889F98980818370806480839FBFEF
:1003000081E090E0DF91CF911F910F91FF90EF90EE
:100310000895F62E0B8D10E00F5F1F4F0F731127FE
:10032000E02E8C8D8E110CC00FB607FCFACFE88939
:10033000F989808185FFF5CFCE010E944001F1CF80
:10034000EB8DEC0FFD2FF11DE35AFF4FF0829FB7AD
:10035000F8940B8FEA89FB8980818062CFCFCF939D
:10036000DF93EC01888D8823B9F0AA89BB89E889DD
:10037000F9898C9185FD03C0808186FD0DC00FB683
:1003800007FCF7CF8C9185FFF2CF808185FFEDCF01
:10039000CE010E944001E9CFDF91CF9108958DE316
:1003A00091E00E94340121E0892B09F420E0822FA2
:1003B000089580E090E0892B29F00E94CF018111FF
:1003C0000C9400000895833081F028F4813099F076
:1003D0008230A9F008958730A9F08830C9F08430C0
:1003E000B1F4809180008F7D03C0809180008F7771
:1003F00080938000089584B58F7784BD089584B577
:100400008F7DFBCF8091B0008F778093B0000895EF
:100410008091B0008F7DF9CFCF93DF93282F30E00C
:10042000F901EA57FF4F8491F901E255FF4FD4914A
:10043000F901E656FF4FC491CC23A1F081110E942F
:10044000E301EC2FF0E0EE0FFF1FE458FF4FA59102
:10045000B491EC91ED2381E090E009F480E0DF912C
:10046000CF91089580E090E0FACF1F93CF93DF9370
:10047000282F30E0F901EA57FF4F8491F901E25546
:10048000FF4FD491F901E656FF4FC491CC23A9F058
:10049000162F81110E94E301EC2FF0E0EE0FFF1FF9
:1004A000EE58FF4FA591B4918FB7F894EC911111CC
:1004B00008C0D095DE23DC938FBFDF91CF911F91D1
:1004C0000895DE2BF8CFCF93DF9390E0FC01E25547
:1004D000FF4F249186569F4FFC0184918823C9F0D9
:1004E00090E0880F991FFC01E859FF4FA591B49146
:1004F000FC01EE58FF4FC591D49161110DC09FB71B
:10050000F8948C91209582238C93888128232883CA
:100510009FBFDF91CF910895623051F49FB7F89457
:100520003C91822F809583238C93E8812E2BEFCFF3
:100530008FB7F894EC912E2B2C938FBFEACF3FB757
:10054000F8948091350190913601A0913701B091D6
:10055000380126B5A89B05C02F3F19F00196A11DB3
:10056000B11D3FBFBA2FA92F982F8827BC01CD01FD
:10057000620F711D811D911D42E0660F771F881F5C
:10058000991F4A95D1F708958F929F92AF92BF928B
:10059000CF92DF92EF92FF924B015C010E949F028B
:1005A0006B017C010E949F026C197D098E099F09D5
:1005B000683E734081059105A8F321E0821A9108F5
:1005C000A108B10888EEC80E83E0D81EE11CF11C1A
:1005D00081149104A104B10429F7FF90EF90DF90FA
:1005E000CF90BF90AF909F908F900895AF92BF92A1
:1005F000CF92DF92EF92FF920F931F93CF93DF93EF
:100600006C017B018B01040F151FEB015E01AE181D
:10061000BF08C017D10759F06991D601ED91FC913F
:100620000190F081E02DC6010995892B79F7C5016C
:10063000DF91CF911F910F91FF90EF90DF90CF90BE
:10064000BF90AF900895CF92DF92EF92FF92CF9339
:10065000DF93DC011796CC911797D0E06111DC2F66
:1006600018962C91189730E0220F331F24583F4FD3
:1006700050E040E0F90185919491FC01F080BA01CD
:1006800090E080E0EF2DEC23ED1310C04F5F5F4F43
:100690001D96CD90DD90ED90FC9050976C157D05EA
:1006A0008E059F0538F36FEF7FEFCB01DF91CF9180
:1006B000FF90EF90DF90CF9008958F929F92AF922E
:1006C000BF92CF92DF92EF92FF920F931F93CF933F
:1006D000DF93CDB7DEB7C054D1400FB6F894DEBF7C
:1006E0000FBECDBF2FB7F8944091390150913A0118
:1006F00060913B0170913C012FBFFC010185128587
:10070000238534856A017B01C01AD10AE20AF30A03
:1007100097018601003D174021053105B0F4FC0129
:100720008189C05CDE4F0FB6F894DEBF0FBECDBF2F
:10073000DF91CF911F910F91FF90EF90DF90CF90BD
:10074000BF90AF909F908F9008958C01FC014187DE
:1007500052876387748714821382128211821082F7
:1007600062E085810E94630261E070E080E090E0D9
:100770000E94C40261E0F80185810E94630260E08A
:10078000F80185810E943502F80186818551823009
:1007900028F58BE291E10197F1F762E0F80185819C
:1007A0000E946302F801828990E08230910538F05E
:1007B000880F991F880F991F05970197F1F7F894F3
:1007C00060E0C8010E9423036F3F7F4F8F4F9F4F10
:1007D00061F4F801118A789480E0A3CF64E170E0BD
:1007E00080E090E00E94C402D8CF61E0C8010E947E
:1007F00023036F3F7F4F8F4F9F4F59F3CE010196D9
:100800007C015E019FEBA91A9EEFB90A670160E0C7
:10081000C8010E942303F60160837183828393835E
:1008200061E0C8010E942303F60164837583868317
:100830009783F8E0CF0ED11CCA14DB0441F77894FB
:1008400030E020E0F70180809180A280B380448175
:10085000558166817781FFEF8F169F06AF06BF0631
:1008600031F04F3F8FEF58076807780719F4F80108
:10087000118AB2CFF90183E0F595E7958A95E1F702
:10088000E00FF11F8081880F84169506A606B70633
:10089000F0F080832F5F3F4FF8E0EF0EF11C28321D
:1008A000310581F6F801448120818181280F3327A9
:1008B000331F8281280F311D8381820F932F911D59
:1008C00099274817190699F681E0818B2ACF816014
:1008D000E0CF089590E080E008950F931F93CF93A9
:1008E000DF93EC0188819981009759F02A813B813F
:1008F0002617370730F081E0DF91CF911F910F91DC
:1009000008958B016F5F7F4F0E949D0C009759F0F7
:10091000998388831B830A832C813D81232B59F77C
:10092000FC011082E8CF80E0E7CFEF92FF920F93B7
:100930001F93CF93DF936115710541F480E0DF9140
:10094000CF911F910F91FF90EF90089541155105A0
:10095000B1F07B01EC010C811D81040F151FB80162
:100960000E946D04882351F3288139818C819D81F7
:10097000B701820F931F0E94630D1D830C8381E0DA
:10098000DECFCF93DF93EC0188819981009711F03E
:100990000E94140C198218821D821C821B821A82EA
:1009A000DF91CF910895CF93DF93EC0141E050E0C8
:1009B00064E271E00E949504811103C0CE010E949F
:1009C000C104CE01DF91CF910895CF93DF93EC0165
:1009D000198218821B821A821D821C826CE070E0D0
:1009E0000E946D04811105C0CE01DF91CF910C945E
:1009F000C1048CE090E09D838C8366E271E0888185
:100A00009981DF91CF910C94630DCF92DF92EF9299
:100A1000FF920F931F93CF93DF93CDB7DEB762970B
:100A20000FB6F894DEBF0FBECDBF8C01CB01F8012D
:100A30001182108213821282158214824AE09E0172
:100A40002F5F3F4F6901B9010E946809F6010190CB
:100A50000020E9F731977F01EC18FD08B701C801C4
:100A60000E946D04811112C0C8010E94C1046296E7
:100A70000FB6F894DEBF0FBECDBFDF91CF911F91AF
:100A80000F91FF90EF90DF90CF900895F801F582DD
:100A9000E482B601808191810E94630DE8CFFC0160
:100AA00080819181009711F00C94140C0895CF93DC
:100AB000DF93EC0160E08E810E94350261E08E815F
:100AC0000E94350260E08E810E9435028BE891E041
:100AD0000197F1F7DF91CF910895CF92DF92EF92D6
:100AE000FF920F931F93CF93DF936C017C0187E0FC
:100AF000E80EF11CD0E0C0E0062F10E0B8010C2E8B
:100B000002C0759567950A94E2F76170F7018191CB
:100B10007F010E9435022196C430D10579F7C601C4
:100B2000DF91CF911F910F91FF90EF90DF90CF90C9
:100B30000C945705CF92DF92EF92FF920F931F9381
:100B4000CF93DF93EC01F62E642F8C810E94350247
:100B50008D818F3F19F060E00E9435020F2D10E06B
:100B60008F8584FF25C06E0187E0C80ED11CF12C53
:100B7000E12CB8010E2C02C0759567950A94E2F736
:100B80006170F60181916F010E943502FFEFEF1A4B
:100B9000FF0A88E0E816F10461F7CE01DF91CF91FA
:100BA0001F910F91FF90EF90DF90CF900C9457051D
:100BB000B80184E0759567958A95E1F7CE010E94AA
:100BC0006D056F2DCE01DF91CF911F910F91FF9099
:100BD000EF90DF90CF900C946D0540E0682F80E09F
:100BE00092E00C949A05CF93DF93823029F4909190
:100BF0000F02986090930F028093130210921402D8
:100C000080E48093150280E18093160280E5809352
:100C1000170261E0809104020E9463028091050244
:100C20008F3F19F061E00E94630261E0809106024B
:100C30000E946302C0E0D2E09E01205032408091C9
:100C40000F0284FD0BC084E090E02196281739073D
:100C500044F461E08E810E946302EECF88E090E070
:100C6000F4CF8BE39DE00197F1F760E080910402FF
:100C70000E94350260E0809106020E943502809158
:100C800005028F3F19F060E00E94350280910F024B
:100C900084FD39C063E080E092E00E946D05CBE402
:100CA000D6E4CE010197F1F763E080E092E00E9484
:100CB0006D052197F1F763E080E092E00E946D05F9
:100CC00083E592E00197F1F762E080E092E00E9414
:100CD0006D0580910F0280620E94ED0584E0809393
:100CE00010028CE00E94ED0581E00E94ED058BE38F
:100CF0009FE10197F1F782E08093110286E0DF9196
:100D0000CF910C94ED0580620E94ED058BE496E492
:100D10000197F1F780910F0280620E94ED0583E553
:100D200092E00197F1F780910F0280620E94ED0539
:100D3000D0CF41E00E949A0581E090E008951F9293
:100D40000F920FB60F9211242F933F938F939F937F
:100D5000AF93BF938091390190913A01A0913B01EB
:100D6000B0913C013091340123E0230F2D3758F529
:100D70000196A11DB11D20933401809339019093F8
:100D80003A01A0933B01B0933C01809135019091D1
:100D90003601A0913701B09138010196A11DB11D16
:100DA0008093350190933601A0933701B0933801B9
:100DB000BF91AF919F918F913F912F910F900FBE57
:100DC0000F901F90189526E8230F0296A11DB11DC4
:100DD000D2CF1F920F920FB60F9211242F933F93F1
:100DE0004F935F936F937F938F939F93AF93BF9333
:100DF000EF93FF938DE391E00E944001FF91EF910B
:100E0000BF91AF919F918F917F916F915F914F9122
:100E10003F912F910F900FBE0F901F9018951F922A
:100E20000F920FB60F9211242F938F939F93EF93EE
:100E3000FF93E0914D01F0914E018081E0915301CB
:100E4000F091540182FD1BC09081809156018F5F0B
:100E50008F7320915701821741F0E0915601F0E025
:100E6000E35CFE4F958F80935601FF91EF919F9128
:100E70008F912F910F900FBE0F901F90189580812A
:100E8000F4CFCF93EDE3F1E01382128288EE93E08A
:100E9000A0E0B0E084839583A683B7838AE091E0E5
:100EA0009183808385EC90E09587848784EC90E043
:100EB0009787868780EC90E0918B808B81EC90E027
:100EC000938B828B82EC90E0958B848B86EC90E008
:100ED000978B868B118E128E138E148EE0E0F2E0CB
:100EE000138212828CE191E0918380838CE0848371
:100EF0008FEF8583CBE0C68385E0878384E080879E
:100F000083E0818782E082871386148615861686A1
:100F1000178681E00E94F305ADEEB1E086E01596FC
:100F20008C9315971696CC931697E4EBF0E0E4912A
:100F30001796EC931797E0EAF0E0E4911896EC939B
:100F4000189740E85EE360E070E01D964D935D9376
:100F50006D937C935097AAEDB1E087E015968C9342
:100F600015971696CC931697E5EBF0E0E49117965B
:100F7000EC931797E1EAF0E0E4911896EC93189758
:100F80001D964D935D936D937C935097CF910895EB
:100F9000CF93DF93CDB7DEB72E970FB6F894DEBFB1
:100FA0000FBECDBF789484B5826084BD84B5816066
:100FB00084BD85B5826085BD85B5816085BD809124
:100FC0006E00816080936E0010928100809181009C
:100FD0008260809381008091810081608093810094
:100FE000809180008160809380008091B100846056
:100FF0008093B1008091B00081608093B0008091B7
:101000007A00846080937A0080917A008260809375
:101010007A0080917A00816080937A0080917A00D2
:10102000806880937A001092C10060E088E00E949E
:10103000630260E089E00E94630262E08091F20155
:101040000E9463022FB7F8948091390190913A0180
:10105000A0913B01B0913C012FBF805D9740A10959
:10106000B1098093F6019093F701A093F801B09332
:10107000F90117E31093FF0162E08091DF010E9404
:1010800063022FB7F8948091390190913A01A091B1
:101090003B01B0913C012FBF805D9740A109B10990
:1010A0008093E3019093E401A093E501B093E601FE
:1010B0001093EC0182E00E94F30500E010E04FED98
:1010C000F42E88E00E940C02892B09F065C08DEE99
:1010D00091E00E945D03812C912C30ECA32E3FE720
:1010E000B32E882331F08DEE91E00E948C004B01ED
:1010F0005C01E1E0809113028111E0E0E195F0E014
:10110000E050FE4F848980680E94ED05C501B4015E
:101110000E943C0BCE0101960E940505CE01079668
:101120000E94E5044D815E8169817A81CE01079636
:101130000E949504811104C0CE0107960E94C1044B
:10114000FD861E8641E050E0BE01635F7F4FCE0109
:1011500007960E949504811104C0CE0107960E9453
:10116000C104CE0107960E94D304FC01448155813D
:101170006081718180E092E00E94F602CE010796C4
:101180000E944F05CE0101960E944F0562E370E078
:1011900080E090E00E94C40288E00E940C02019767
:1011A00009F065C08AED91E00E945D03812C912CCD
:1011B00020ECA22E2FE7B22E882331F08AED91E0A9
:1011C0000E948C004B015C01E1E0809113028111CF
:1011D000E0E0E195F0E0E050FE4F848980680E94F5
:1011E000ED05C501B4010E943C0BCE0101960E94A1
:1011F0000505CE0107960E94E5044D815E81698157
:101200007A81CE0107960E949504811104C0CE0117
:1012100007960E94C104FD861E8641E050E0BE0193
:10122000635F7F4FCE0107960E949504811104C031
:10123000CE0107960E94C104CE0107960E94D304F6
:10124000FC01448155816081718180E092E00E94BF
:10125000F602CE0107960E944F05CE0101960E942C
:101260004F0562E370E080E090E00E94C40289E0F4
:101270000E940C02019701F590E1C92ED12C8CE15E
:101280000E94ED0564E670E080E090E00E94C402F8
:10129000F1E0CF1AD10899F780E1C82ED12C88E16E
:1012A0000E94ED0564E670E080E090E00E94C402D8
:1012B00081E0C81AD10899F70115110509F401CF89
:1012C0000E94CF01882309F4FCCE0E940000F9CED1
:1012D000BB274A3031F4992322F4BDE290958195E1
:1012E0009F4F0C947409BB27FB015527AA27880F31
:1012F000991FAA1FA41710F0A41B83955051B9F78A
:10130000A05DAA3308F0A95DA193009779F7B11108
:10131000B1931192CB010C948D09DC01FC01672F74
:1013200071917723E1F7329704C07C916D937083BC
:101330006291AE17BF07C8F30895E89409C097FB00
:101340003EF490958095709561957F4F8F4F9F4F9C
:101350009923A9F0F92F96E9BB279395F6958795E0
:1013600077956795B795F111F8CFFAF4BB0F11F4A3
:1013700060FF1BC06F5F7F4F8F4F9F4F16C088234A
:1013800011F096E911C0772321F09EE8872F762F80
:1013900005C0662371F096E8862F70E060E02AF0C1
:1013A0009A95660F771F881FDAF7880F96958795AD
:1013B00097F908950E94ED090C945E0A0E94500A64
:1013C00038F00E94570A20F0952311F00C94470A38
:1013D0000C944D0A11240C94920A0E946F0A70F327
:1013E000959FC1F3950F50E0551F629FF001729FCA
:1013F000BB27F00DB11D639FAA27F00DB11DAA1FD9
:10140000649F6627B00DA11D661F829F2227B00D25
:10141000A11D621F739FB00DA11D621F839FA00DB0
:10142000611D221F749F3327A00D611D231F849F00
:10143000600D211D822F762F6A2F11249F57504057
:101440009AF0F1F088234AF0EE0FFF1FBB1F661FD2
:10145000771F881F91505040A9F79E3F510580F09B
:101460000C94470A0C94920A5F3FE4F3983ED4F33D
:10147000869577956795B795F795E7959F5FC1F73F
:10148000FE2B880F911D9695879597F9089597F9EA
:101490009F6780E870E060E008959FEF80EC08951A
:1014A00000240A9416161706180609060895002443
:1014B0000A9412161306140605060895092E0394BD
:1014C000000C11F4882352F0BB0F40F4BF2B11F431
:1014D00060FF04C06F5F7F4F8F4F9F4F089557FD90
:1014E0009058440F551F59F05F3F71F04795880F92
:1014F00097FB991F61F09F3F79F087950895121629
:1015000013061406551FF2CF4695F1DF08C01616D4
:1015100017061806991FF1CF869571056105089485
:101520000895E894BB2766277727CB0197F908959C
:101530002F923F924F925F926F927F928F929F92E3
:10154000AF92BF92CF92DF92EF92FF920F931F93D1
:10155000CF93DF93CDB7DEB7CA1BDB0B0FB6F89482
:10156000DEBF0FBECDBF09942A88398848885F84C2
:101570006E847D848C849B84AA84B984C884DF8033
:10158000EE80FD800C811B81AA81B981CE0FD11D17
:101590000FB6F894DEBF0FBECDBFED0108955058D1
:1015A000BB27AA270E94E70A0C945E0A0E94500AF1
:1015B00038F00E94570A20F039F49F3F19F426F4BE
:1015C0000C944D0A0EF4E095E7FB0C94470AE92FC2
:1015D0000E946F0A58F3BA176207730784079507CA
:1015E00020F079F4A6F50C94910A0EF4E0950B2EF8
:1015F000BA2FA02D0B01B90190010C01CA01A00165
:101600001124FF27591B99F0593F50F4503E68F1BF
:101610001A16F040A22F232F342F4427585FF3CF00
:10162000469537952795A795F0405395C9F77EF4D1
:101630001F16BA0B620B730B840BBAF09150A1F01A
:10164000FF0FBB1F661F771F881FC2F70EC0BA0FA0
:10165000621F731F841F48F4879577956795B79528
:10166000F7959E3F08F0B0CF9395880F08F0992723
:10167000EE0F9795879508950E94430B6894B111DA
:101680000C94920A08950E94770A88F09F5798F068
:10169000B92F9927B751B0F0E1F0660F771F881F77
:1016A000991F1AF0BA95C9F714C0B13091F00E9491
:1016B000910AB1E008950C94910A672F782F88273A
:1016C000B85F39F0B93FCCF3869577956795B395B8
:1016D000D9F73EF490958095709561957F4F8F4F27
:1016E0009F4F0895EE0FFF1F0590F491E02D099490
:1016F0000F931F93CF93DF938230910510F482E014
:1017000090E0E0911A02F0911B0230E020E0B0E09E
:10171000A0E0309799F42115310509F44AC0281B3F
:10172000390B24303105D8F58A819B81611571050B
:1017300089F1FB0193838283FE0111C040815181B5
:101740000281138148175907E0F04817590799F4A7
:10175000109761F012960C93129713961C93329681
:10176000CF01DF91CF911F910F91089500931A023D
:1017700010931B02F4CF2115310551F04217530786
:1017800038F0A901DB019A01BD01DF01F801C1CFE9
:10179000EF01F9CF90931B0280931A02CDCFFE0187
:1017A000E20FF31F819391932250310939832883EB
:1017B000D7CF2091180230911902232B41F42091A8
:1017C00002013091030130931902209318022091F5
:1017D0000001309101012115310541F42DB73EB7CB
:1017E0004091040150910501241B350BE091180232
:1017F000F0911902E217F307A0F42E1B3F0B2817F4
:10180000390778F0AC014E5F5F4F2417350748F079
:101810004E0F5F1F509319024093180281939193CA
:101820009FCFF0E0E0E09CCFCF93DF930097E9F00B
:10183000FC01329713821282A0911A02B0911B020E
:10184000ED0130E020E01097A1F420813181820F7A
:10185000931F20911802309119022817390709F0B7
:1018600061C0F0931902E0931802DF91CF910895BF
:10187000EA01CE17DF07E8F54A815B819E01411539
:101880005105B1F7E901FB83EA8349915991C40FEE
:10189000D51FEC17FD0761F4808191810296840FBA
:1018A000951FE90199838883828193819B838A8331
:1018B000F0E0E0E012968D919C9113970097B9F5B6
:1018C0002D913C911197CD010296820F931F20918B
:1018D0001802309119022817390739F6309751F557
:1018E00010921B0210921A02B0931902A0931802D0
:1018F000BCCFD383C28340815181840F951FC81709
:10190000D90761F44E5F5F4F88819981480F591F55
:10191000518340838A819B81938382832115310582
:1019200009F0B0CFF0931B02E0931A029ECFFD01A5
:10193000DC01C0CF13821282D7CFB0E0A0E0E3EA8F
:10194000FCE00C949A0A8C01009751F4CB010E94A0
:10195000780B8C01C801CDB7DEB7E0E10C94B60A74
:10196000FC01E60FF71F9C0122503109E217F30733
:1019700008F49DC0D901CD91DC911197C617D70706
:1019800098F0C530D10530F3CE010497861797073C
:1019900008F3C61BD70B2297C193D1936D937C9309
:1019A000CF010E94140CD6CF5B01AC1ABD0A4C01CA
:1019B0008C0E9D1EA0911A02B0911B02512C412C3D
:1019C000F12CE12C109731F58091180290911902B9
:1019D0008815990509F05CC04616570608F058C0EE
:1019E0008091000190910101009741F48DB79EB75D
:1019F0004091040150910501841B950BE817F907EC
:101A000008F055C0F0931902E0931802F9017183B0
:101A10006083A0CF8D919C91119712966C90129734
:101A200013967C901397A815B90559F56C0142E0FF
:101A3000C40ED11CCA14DB0420F1AC014A195B09A5
:101A4000DA011296159780F0628273825183408387
:101A5000D9016D937C93E114F10471F0D7011396D1
:101A6000FC93EE93129776CF22968C0F9D1FF9016F
:101A700091838083F301EFCFF0931B02E0931A026E
:101A800069CF4816590608F42C017D01D3019ACF7D
:101A9000CB010E94780B7C01009749F0AE01B801A0
:101AA0000E945A0DC8010E94140C870153CF10E008
:101AB00000E050CFFB01DC0102C001900D924150CB
:101AC0005040D8F70895FB01DC0101900D920020F1
:081AD000E1F70895F894FFCF3F
:101AD80000001C028000000000006201F602030101
:101AE800AF01340112012601000000009906F60238
:101AF8006A046904430054656D7065726174757297
:041B0800653A00003A
:00000001FF
