:020000040000FA
:100000000C945E000C9486000C9486000C94860080
:100010000C9486000C9486000C9486000C944F027D
:100020000C9486000C9486000C9486000C94860038
:100030000C9486000C9486000C9486000C94860028
:100040000C9403030C9486000C94D1020C94AB0224
:100050000C9486000C9486000C9486000C94860008
:100060000C9486000C948600000000080002010039
:100070000003040700000000000000000200000070
:1000800000250028002B0000000000240027002A83
:100090000004040404040404040202020202020331
:1000A000030303030301020408102040800102043B
:1000B00008102001020408102000E70411241FBECC
:1000C000CFEFD8E0DEBFCDBF11E0A0E0B1E0E8E3C4
:1000D000FAE002C005900D92A431B107D9F721E0F2
:1000E000A4E1B1E001C01D92AB3CB207E1F710E022
:1000F000CEE5D0E004C02197FE010E941405CD3565
:10010000D107C9F70E944D030C941A050C94000006
:1001100090E0FC01EB55FF4F24918F569F4FFC015F
:100120008491882399F090E0880F991FFC01E9578A
:10013000FF4FA591B491FC01E358FF4F8591949135
:100140008FB7F894EC91E22BEC938FBF08959091C8
:10015000000189130DC0ECE7F0E0E4919FEF90936C
:100160000001E13009F431C068F1E23009F433C034
:1001700090E0FC01E859FF4F2491FC01EB55FF4F43
:100180003491FC01EF56FF4FE491EE23D1F022238E
:1001900051F0233009F43AC078F5213009F43CC01D
:1001A000223009F43DC0F0E0EE0FFF1FE358FF4F8F
:1001B000A591B4918FB7F894EC9130953E233C9380
:1001C0008FBF089510926E00D3CF90916F009D7FE6
:1001D00090936F00CDCF909170009D7F90937000B1
:1001E00091E09093B0009091B100987F94609093CB
:1001F000B1001092B300BCCF2730A9F02830C9F06D
:10020000243089F6809180008F7D03C0809180002A
:100210008F7780938000C7CF84B58F7784BDC3CF9D
:1002200084B58F7DFBCF8091B0008F778093B00035
:10023000BACF8091B0008F7DF9CFAF92BF92CF92AD
:10024000DF92EF92FF920F931F93CF93DF936C0196
:100250007B018B01040F151FEB015E01AE18BF0877
:10026000C017D10759F06991D601ED91FC91019029
:10027000F081E02DC6010995892B79F7C501DF9141
:10028000CF911F910F91FF90EF90DF90CF90BF9093
:10029000AF900895FC01538D448D252F30E0842FBD
:1002A00090E0821B930B541710F0CF96089501979E
:1002B0000895FC01918D828D981761F0A28DAE0F8B
:1002C000BF2FB11D5D968C91928D9F5F9F73928F12
:1002D00090E008958FEF9FEF0895FC01918D828D3E
:1002E000981731F0828DE80FF11D858D90E008950B
:1002F0008FEF9FEF0895FC01918D228D892F90E063
:10030000805C9F4F821B91098F73992708958EE21D
:1003100091E00E947B0121E0892B09F420E0822FEB
:10032000089580E090E0892B29F00E9487018111D7
:100330000C9400000895FC01A48DA80FB92FB11DE5
:10034000A35ABF4F2C91848D90E001968F7399270B
:10035000848FA689B7892C93A089B1898C918370E9
:1003600080648C93938D848D981306C00288F389E2
:10037000E02D80818F7D80830895EF92FF920F930F
:100380001F93CF93DF93EC0181E0888F9B8D8C8D41
:1003900098131AC0E889F989808185FF15C09FB735
:1003A000F894EE89FF896083E889F98980818370F8
:1003B000806480839FBF81E090E0DF91CF911F91A7
:1003C0000F91FF90EF900895F62E0B8D10E00F5FC8
:1003D0001F4F0F731127E02E8C8D8E110CC00FB69E
:1003E00007FCFACFE889F989808185FFF5CFCE0136
:1003F0000E949B01F1CFEB8DEC0FFD2FF11DE35A15
:10040000FF4FF0829FB7F8940B8FEA89FB898081B8
:100410008062CFCFCF93DF93EC01888D8823B9F032
:10042000AA89BB89E889F9898C9185FD03C08081FF
:1004300086FD0DC00FB607FCF7CF8C9185FFF2CF7C
:10044000808185FFEDCFCE010E949B01E9CFDF9136
:10045000CF9108953FB7F8948091190190911A01B6
:10046000A0911B01B0911C0126B5A89B05C02F3F90
:1004700019F00196A11DB11D3FBFBA2FA92F982FCA
:100480008827BC01CD01620F711D811D911D42E0C5
:10049000660F771F881F991F4A95D1F708951F92FD
:1004A0000F920FB60F9211242F933F934F935F93A8
:1004B0006F937F938F939F93AF93BF93EF93FF932C
:1004C0008091220190912301A0912401B0912501F6
:1004D000892B8A2B8B2BD1F190911D01E0911E016C
:1004E000F0911F0180818927808380912201909162
:1004F0002301A0912401B0912501181619061A06AE
:100500001B069CF48091220190912301A09124016B
:10051000B09125010197A109B1098093220190931F
:100520002301A0932401B0932501FF91EF91BF9186
:10053000AF919F918F917F916F915F914F913F917B
:100540002F910F900FBE0F901F9018958091000172
:100550000E94A700EACF1F920F920FB60F921124AC
:100560002F933F934F935F936F937F938F939F93BB
:10057000AF93BF93EF93FF938EE291E00E949B01B4
:10058000FF91EF91BF91AF919F918F917F916F916B
:100590005F914F913F912F910F900FBE0F901F9041
:1005A00018951F920F920FB60F9211242F938F93CD
:1005B0009F93EF93FF93E0913E01F0913F01808183
:1005C000E0914401F091450182FD1BC09081809132
:1005D00047018F5F8F7320914801821741F0E091AE
:1005E0004701F0E0E25DFE4F958F80934701FF9158
:1005F000EF919F918F912F910F900FBE0F901F90B1
:1006000018958081F4CF1F920F920FB60F9211248C
:100610002F933F938F939F93AF93BF938091150137
:1006200090911601A0911701B09118013091140119
:1006300023E0230F2D3758F50196A11DB11D2093FE
:1006400014018093150190931601A0931701B093A4
:1006500018018091190190911A01A0911B01B0918C
:100660001C010196A11DB11D8093190190931A01DF
:10067000A0931B01B0931C01BF91AF919F918F91EB
:100680003F912F910F900FBE0F901F90189526E865
:10069000230F0296A11DB11DD2CF789484B582603C
:1006A00084BD84B5816084BD85B5826085BD85B516
:1006B000816085BD80916E00816080936E00109294
:1006C000810080918100826080938100809181000F
:1006D00081608093810080918000816080938000A0
:1006E0008091B10084608093B1008091B0008160FE
:1006F0008093B00080917A00846080937A0080912A
:100700007A00826080937A0080917A008160809381
:100710007A0080917A00806880937A001092C100FC
:1007200087E00E948800E0913E01F0913F0182E065
:100730008083E0913A01F0913B011082E0913C010D
:10074000F0913D018FEC808310924601E0914201CF
:10075000F091430186E08083E0914001F0914101F6
:10076000808180618083E0914001F091410180812E
:1007700088608083E0914001F09141018081806830
:100780008083E0914001F091410180818F7D8083E1
:1007900008E910E04CEA242E40E0342ECC24CA9420
:1007A000DC2C76018EE291E00E947B01181619067E
:1007B0000CF0CEC08EE291E00E945901813309F025
:1007C00000C180910001873029F5ECE7F0E0C49189
:1007D000C7FDBEC087E00E948800CC2309F488C012
:1007E000C23009F099C08091B100887F8360809306
:1007F000B10089EF8093B300C0922201D09223010F
:10080000E0922401F0922501809170008260809333
:1008100070009EC08F3F09F09BC087E0809300016D
:10082000ECE7F0E0C491CF3F09F492C0C13011F180
:1008300048F0C23009F43BC0C7FD8AC087E00E947F
:100840008800CECF14BC15BC84B5826084BD85B54C
:10085000816085BDF8018491E82FF0E0EE0FFF1F65
:10086000E358FF4F85919491F10184918093210188
:10087000C0E0B0CF10928000109281008091810082
:1008800088608093810080918100816080938100E5
:10089000F8018491E82FF0E0EE0FFF1FE358FF4FBF
:1008A00085919491F10184918093200193CF1092CE
:1008B000B0001092B1008091B00082608093B000CF
:1008C0008091B10081608093B100F8018491E82F9C
:1008D000F0E0EE0FFF1FE358FF4F85919491909346
:1008E0001F0180931E01F101849180931D0172CF3D
:1008F00085B5887F836085BD8CE787BDC0922A015E
:10090000D0922B01E0922C01F0922D0180916E008B
:10091000826080936E001CC0C13009F04AC0809193
:100920008100887F8160809381008FE39FE19093B5
:10093000890080938800C0922601D0922701E0921E
:100940002801F092290180916F00826080936F00EE
:100950000E942A022B013C018AE0882E912CA12CB6
:10096000B12C0E942A026419750986099709683E0C
:10097000734081059105A8F391E0891A9108A108B7
:10098000B108E8EE4E0EE3E05E1E611C711C81149E
:100990009104A104B10429F780E090E0892B09F4C7
:1009A00001CF0E948701882309F4FCCE0E94000039
:1009B000F9CEC23021F0C111CBCF8FE39ECF8FE3B0
:1009C00019CF803329F687E00E94A700C1CFEEE25D
:1009D000F1E01382128288EE93E0A0E0B0E084831D
:1009E0009583A683B78385E091E09183808385EC2E
:1009F00090E09587848784EC90E09787868780ECE9
:100A000090E0918B808B81EC90E0938B828B82ECD9
:100A100090E0958B848B86EC90E0978B868B118E83
:100A2000128E138E148E0895EE0FFF1F0590F49111
:100A3000E02D0994F894FFCFFF00000000BD011DD8
:0C0A4000014A010A027B0159016D01000E
:107E0000112484B714BE81FFF0D085E080938100F7
:107E100082E08093C00088E18093C10086E0809377
:107E2000C20080E18093C4008EE0C9D0259A86E02C
:107E300020E33CEF91E0309385002093840096BBD3
:107E4000B09BFECF1D9AA8958150A9F7CC24DD24C4
:107E500088248394B5E0AB2EA1E19A2EF3E0BF2EE7
:107E6000A2D0813461F49FD0082FAFD0023811F036
:107E7000013811F484E001C083E08DD089C08234E0
:107E800011F484E103C0853419F485E0A6D080C0E4
:107E9000853579F488D0E82EFF2485D0082F10E0AE
:107EA000102F00270E291F29000F111F8ED06801E7
:107EB0006FC0863521F484E090D080E0DECF843638
:107EC00009F040C070D06FD0082F6DD080E0C81688
:107ED00080E7D80618F4F601B7BEE895C0E0D1E017
:107EE00062D089930C17E1F7F0E0CF16F0E7DF06D8
:107EF00018F0F601B7BEE89568D007B600FCFDCFD4
:107F0000A601A0E0B1E02C9130E011968C91119780
:107F100090E0982F8827822B932B1296FA010C0160
:107F200087BEE89511244E5F5F4FF1E0A038BF0790
:107F300051F7F601A7BEE89507B600FCFDCF97BE46
:107F4000E89526C08437B1F42ED02DD0F82E2BD052
:107F50003CD0F601EF2C8F010F5F1F4F84911BD097
:107F6000EA94F801C1F70894C11CD11CFA94CF0C13
:107F7000D11C0EC0853739F428D08EE10CD085E9AC
:107F80000AD08FE07ACF813511F488E018D01DD067
:107F900080E101D065CF982F8091C00085FFFCCF94
:107FA0009093C60008958091C00087FFFCCF809118
:107FB000C00084FD01C0A8958091C6000895E0E648
:107FC000F0E098E1908380830895EDDF803219F02E
:107FD00088E0F5DFFFCF84E1DECF1F93182FE3DFCA
:107FE0001150E9F7F2DF1F91089580E0E8DFEE27F6
:047FF000FF270994CA
:027FFE00040479
:00000001FF
