:020000040000FA
:100000000C94A2000C94CA000C94CA000C94CA0070
:100010000C94CA000C94CA000C94CA000C94CA0038
:100020000C94CA000C94CA000C94CA000C94CA0028
:100030000C94CA000C94CA000C94CA000C94CA0018
:100040000C9423030C94CA000C94CA000C94CA00AC
:100050000C94CA000C94CA000C94CA000C94CA00F8
:100060000C94CA000C94CA00000000002400270071
:100070002A0000000000250028002B0000000000DE
:1000800023002600290004040404040404040202DA
:100090000202020203030303030301020408102007
:1000A0004080010204081020010204081020000012
:1000B0000008000201000003040700000000000027
:1000C00000007E306D79335B5F707F7B771F0D3D65
:1000D0004F4700000000000000000000000000008A
:1000E000000000000000000000000000000080018F
:1000F00080007E306D79335B5F707F7B0000000095
:10010000000000771F0D3D4F4700370000000E0034
:100110000000670000000000000000000000000078
:10012000000800771F0D3D4F4700370000000E000C
:10013000151D670000000000000000000000000026
:1001400000008E0511241FBECFEFD8E0DEBFCDBF6B
:1001500011E0A0E0B1E0ECE9FCE002C005900D92F6
:10016000AE31B107D9F721E0AEE1B1E001C01D9297
:10017000AE3EB207E1F710E0C2EAD0E004C021973A
:10018000FE010E944606C13AD107C9F70E946D03DD
:100190000C944C060C94000096E0899FD001112429
:1001A000A95DBE4F90967C936E935F9791E0919678
:1001B0009C939197E0919401F09195019091930116
:1001C000992339F0309751F0811108C08091430193
:1001D0000994309719F05C968C91FACF0895CF92DC
:1001E000DF92EF92FF920F931F9396E0899FF001A9
:1001F0001124E95DFE4F11A2278D30A12130310578
:1002000051F178F02230310509F451C02330310525
:1002100009F452C01F910F91FF90EF90DF90CF90A3
:1002200008956623B9F361E070E00E94CC002FB717
:10023000F8948091230190912401A0912501B0911F
:1002400026012FBF80937F0190938001A0938101AD
:10025000B0938201DFCF9FB7F894C0902301D09074
:100260002401E0902501F09026019FBF00917F01BD
:10027000109180012091810130918201C01AD10A30
:10028000E20AF30A009191011091920130E020E01E
:100290000C151D052E053F0550F462E070E01F911E
:1002A0000F91FF90EF90DF90CF900C94CC006111F4
:1002B000B1CF63E070E0F3CF70E060E0F0CF833067
:1002C00081F028F4813099F08230A9F008958730C8
:1002D000A9F08830C9F08430B1F4809180008F7D1E
:1002E00003C0809180008F7780938000089584B54B
:1002F0008F7784BD089584B58F7DFBCF8091B0004A
:100300008F778093B00008958091B0008F7DF9CFF2
:10031000CF93DF93282F30E0F901E255FF4F84910E
:10032000F901E656FF4FD491F901EA57FF4FC49106
:10033000CC23A1F081110E945F01EC2FF0E0EE0FC1
:10034000FF1FE458FF4FA591B491EC91ED2381E09C
:1003500090E009F480E0DF91CF91089580E090E093
:10036000FACF862F0C9488011F93CF93DF93282F09
:1003700030E0F901E255FF4F8491F901E656FF4F55
:10038000D491F901EA57FF4FC491CC23A9F0162F5D
:1003900081110E945F01EC2FF0E0EE0FFF1FEE587D
:1003A000FF4FA591B4918FB7F894EC91111108C04B
:1003B000D095DE23DC938FBFDF91CF911F910895FD
:1003C000DE2BF8CF862F642F0C94B401CF93DF93EC
:1003D00090E0FC01E656FF4F24918A579F4FFC01A5
:1003E00084918823C9F090E0880F991FFC01E85997
:1003F000FF4FA591B491FC01EE58FF4FC591D491E8
:1004000061110DC09FB7F8948C91209582238C9335
:100410008881282328839FBFDF91CF910895623080
:1004200051F49FB7F8943C91822F809583238C934D
:10043000E8812E2BEFCF8FB7F894EC912E2B2C93D5
:100440008FBFEACF862F642F0C94E6013FB7F89454
:1004500080911F0190912001A0912101B091220172
:1004600026B5A89B05C02F3F19F00196A11DB11D0F
:100470003FBFBA2FA92F982F8827BC01CD01620F4B
:10048000711D811D911D42E0660F771F881F991F06
:100490004A95D1F708958F929F92AF92BF92CF92D3
:1004A000DF92EF92FF920E9426024B015C0184EFE3
:1004B000C82EDD24D394E12CF12C0E942602681969
:1004C00079098A099B09683E734081059105A8F363
:1004D00021E0C21AD108E108F10888EE880E83E015
:1004E000981EA11CB11CC114D104E104F10429F728
:1004F000FF90EF90DF90CF90BF90AF909F908F9044
:100500000895CF92DF92EF92FF920F931F93CF93B4
:10051000DF9300D0CDB7DEB769834A83880F991F78
:100520000091EC011091ED01000F111FE6E9F1E0DF
:100530009F01265931402017310714F41192F8CF4A
:100540002981FC01EA56FE4F21838A81808360E085
:100550008091EA010E94B4011016110604F50150C1
:100560001109F801EA56FE4FE080D090E801C090F2
:10057000E60188E0F82E6E2D661F6627661F8C2D1B
:100580000E94B401EE0C61E08D2D0E94B40160E088
:100590008D2D0E94B401FA94F110EDCFDDCF61E012
:1005A0008091EA010F900F90DF91CF911F910F91F1
:1005B000FF90EF90DF90CF900C94B401EF92FF92F8
:1005C0001F93CF93DF932091EC013091ED018217BF
:1005D0009307B4F4EC0123E0880F991F2A95E1F703
:1005E0009C012A553E4F790111E0F70111927F01DC
:1005F00040E0612FCE010E9481021F5F1930A9F7F0
:10060000DF91CF911F91FF90EF9008952091EC0121
:100610003091ED0112161306ACF48830910590F478
:1006200067FD60E2E62F660FFF0BEE53FF4F44912C
:10063000FC01EA56FE4F408B61E0680F90E080E0DD
:100640000C94810208951F920F920FB60F921124FD
:100650002F933F938F939F93AF93BF9380912301E9
:1006600090912401A0912501B091260130911E01A5
:1006700023E0230F2D3758F50196A11DB11D2093BE
:100680001E018093230190932401A0932501B09330
:10069000260180911F0190912001A0912101B0912C
:1006A00022010196A11DB11D80931F01909320018D
:1006B000A0932101B0932201BF91AF919F918F919F
:1006C0003F912F910F900FBE0F901F90189526E825
:1006D000230F0296A11DB11DD2CF789484B58260FC
:1006E00084BD84B5816084BD85B5826085BD85B5D6
:1006F000816085BD80916E00816080936E00109254
:1007000081008091810082608093810080918100CE
:10071000816080938100809180008160809380005F
:100720008091B10084608093B1008091B0008160BD
:100730008093B00080917A00846080937A008091E9
:100740007A00826080937A0080917A008160809341
:100750007A0080917A00806880937A001092C100BC
:100760008091EC019091ED011816190634F441E0E6
:100770006CE090E080E00E9481028091EC01909119
:10078000ED011816190634F448E06AE090E080E0C4
:100790000E94810290E080E00E94DE02812C912C78
:1007A0005401839440E0642E40E0742ED0E0C0E019
:1007B00021E0209393018FB7F89440912301509149
:1007C000240160912501709126018FBF80918301E2
:1007D00090918401A0918501B0918601481B590B2D
:1007E0006A0B7B0B80918F0190919001B0E0A0E0AB
:1007F00084179507A607B70708F019C110E0809184
:100800008D01181760F4E0918901F0918A01E10FE0
:10081000F11D62E080810E94E6011F5FF0CF312C64
:1008200080918E01381608F064C0032D10E0E0912D
:100830008B01F0918C01E00FF11F61E080810E943B
:10084000E601E0918B01F0918C01E00FF11F60E077
:1008500080810E94B401D501C401032C04C0880F1B
:10086000991FAA1FBB1F0A94D2F76C017C01E09468
:10087000F094212C80918D01281620F5422C512CCA
:10088000E0918901F0918A01E40DF51D80810E94BB
:100890008801F2013496892B61F4EE0FFF1FE95DA8
:1008A000FE4F808191818C299D299183808323949F
:1008B000E1CFEE0FFF1FE95DFE4F808191818E2118
:1008C0009F21F3CFE0918B01F0918C01E00FF11F9C
:1008D00061E080810E94B40180918B0190918C0134
:1008E000080F191F60E0F80180810E94E60133942F
:1008F00097CF07E211E06801F601878D90A1892B5F
:1009000031F4148E2FEF3FEF368F258F11A236E092
:10091000C30ED11C53E6C51651E0D50669F7512C1C
:1009200080918D01581608F053C0412CE52CF12C14
:10093000EE0CFF1CC701815D9E4F7C0120918E0152
:10094000421608F043C0F70160817181042C02C097
:10095000769567950A94E2F7529E90011124240D32
:10096000311DE7E2F1E080E0458D568D2417350713
:1009700009F4D2C08F5F36968A30B1F760FF24C089
:10098000E7E2F1E090E080E0448D411118C0E09191
:100990008701F0918801E20FF31F408156E0589FD4
:1009A000F001599FF00D1124E95DFE4F448F368F01
:1009B000258F10A2178E61E00E94EF0005C00196FE
:1009C00036968A30910501F74394B8CF5394A8CF57
:1009D00080E0F80191A19111892F0A5F1F4FC01685
:1009E000D106B9F79FB7F8944091230150912401A3
:1009F00060912501709126019FBF40938301509320
:100A000084016093850170938601882381F0809131
:100A10004801882361F08091460190914701019738
:100A200031F410914301111105C021970DC01092AE
:100A30009301FBCF103271F490E080E00E94DE025F
:100A4000612FCE010E9406032196C430D10509F022
:100A5000AFCE5BC01636A1F760E090E080E00E9468
:100A6000060360E081E090E00E94060360E082E01F
:100A700090E00E94060360E083E090E00E9406039D
:100A80000E944B0261E083E090E00E9406030E9416
:100A90004B0261E082E090E00E9406030E944B025C
:100AA00060E083E090E00E9406030E944B0261E058
:100AB00081E090E00E9406030E944B0261E083E027
:100AC00090E00E9406030E944B0260E082E090E00A
:100AD0000E9406030E944B0260E083E090E00E94C7
:100AE00006030E944B0261E090E080E00E94060352
:100AF0000E944B0261E083E090E00E9406030E94A6
:100B00004B0290E080E00E94DE026114710409F45F
:100B10004DCE0E9400004ACE61704ECFCF93DF933E
:100B2000CCE0D0E0D093E701C093E6018BE090E009
:100B30009093E9018093E8018AE090E09093EB01C3
:100B40008093EA0181E090E09093ED018093EC01C5
:100B500061E08CE00E94E60161E08091E8010E9482
:100B6000E60161E08091EA010E94E60161E0809186
:100B7000EA010E94B401D093E701C093E601E6EADE
:100B8000F1E086EE91E011928E179F07E1F7D0E039
:100B9000C0E08091EC019091ED01C817D9073CF5B8
:100BA00040E06FE0CE010E9481028091EC019091C3
:100BB000ED01C817D9072CF447E06BE0CE010E9485
:100BC000810240E069E0CE010E948102CE010E94D4
:100BD000DE028091EC019091ED01C817D9072CF449
:100BE00040E06CE0CE010E9481022196D2CF1092AB
:100BF000290110922D0110922C0110922E0187E1F3
:100C000091E09093280180932701E3E4F1E08FE7DE
:100C100091E0108214821382158236968E179F07F8
:100C2000C1F783E091E090938A018093890180E08D
:100C300091E090938C0180938B0184E080938D01EF
:100C400083E080938E0187E091E090938801809308
:100C500087018AE090E09093900180938F0184EF68
:100C600091E09093920180939101109295011092DE
:100C700094011092830110928401109285011092C8
:100C8000860110929301DF91CF910895EE0FFF1F1F
:100C90000590F491E02D0994F894FFCF0605040324
:100CA00002010031323334353637383966302000AE
:0A0CB0000000002202E201B1010081
:107E0000112484B714BE81FFF0D085E080938100F7
:107E100082E08093C00088E18093C10086E0809377
:107E2000C20080E18093C4008EE0C9D0259A86E02C
:107E300020E33CEF91E0309385002093840096BBD3
:107E4000B09BFECF1D9AA8958150A9F7CC24DD24C4
:107E500088248394B5E0AB2EA1E19A2EF3E0BF2EE7
:107E6000A2D0813461F49FD0082FAFD0023811F036
:107E7000013811F484E001C083E08DD089C08234E0
:107E800011F484E103C0853419F485E0A6D080C0E4
:107E9000853579F488D0E82EFF2485D0082F10E0AE
:107EA000102F00270E291F29000F111F8ED06801E7
:107EB0006FC0863521F484E090D080E0DECF843638
:107EC00009F040C070D06FD0082F6DD080E0C81688
:107ED00080E7D80618F4F601B7BEE895C0E0D1E017
:107EE00062D089930C17E1F7F0E0CF16F0E7DF06D8
:107EF00018F0F601B7BEE89568D007B600FCFDCFD4
:107F0000A601A0E0B1E02C9130E011968C91119780
:107F100090E0982F8827822B932B1296FA010C0160
:107F200087BEE89511244E5F5F4FF1E0A038BF0790
:107F300051F7F601A7BEE89507B600FCFDCF97BE46
:107F4000E89526C08437B1F42ED02DD0F82E2BD052
:107F50003CD0F601EF2C8F010F5F1F4F84911BD097
:107F6000EA94F801C1F70894C11CD11CFA94CF0C13
:107F7000D11C0EC0853739F428D08EE10CD085E9AC
:107F80000AD08FE07ACF813511F488E018D01DD067
:107F900080E101D065CF982F8091C00085FFFCCF94
:107FA0009093C60008958091C00087FFFCCF809118
:107FB000C00084FD01C0A8958091C6000895E0E648
:107FC000F0E098E1908380830895EDDF803219F02E
:107FD00088E0F5DFFFCF84E1DECF1F93182FE3DFCA
:107FE0001150E9F7F2DF1F91089580E0E8DFEE27F6
:047FF000FF270994CA
:027FFE00040479
:00000001FF
