:020000040000FA
:100000000C945D000C9485000C9485000C94850084
:100010000C9485000C9485000C9485000C9485004C
:100020000C9485000C9485000C9485000C9485003C
:100030000C9485000C9485000C9485000C9485002C
:100040000C9408020C9485000C9485000C94850097
:100050000C9485000C9485000C9485000C9485000C
:100060000C9485000C94850000000008000201003B
:100070000003040700000000000000000000000072
:10008000250028002B0000000000240027002A0083
:10009000040404040404040402020202020203032E
:1000A0000303030301020408102040800102040836
:1000B0001020010204081020020311241FBECFEFFC
:1000C000D8E0DEBFCDBF11E0A0E0B1E0E6EEF6E0A3
:1000D00002C005900D92A832B107D9F721E0A8E23D
:1000E000B1E001C01D92A938B207E1F710E0CDE5FB
:1000F000D0E004C02197FE010E946B03CC35D107EC
:10010000C9F70E9452020C9471030C94000090E015
:10011000FC01EC55FF4F249180579F4FFC018491C7
:10012000882399F090E0880F991FFC01EA57FF4F50
:10013000A591B491FC01E458FF4F859194918FB73C
:10014000F894EC91E22BEC938FBF089590E0FC01C2
:10015000E859FF4F2491FC01EC55FF4F3491FC010D
:10016000E057FF4FE491EE23C9F0222339F023300A
:1001700001F1A8F4213019F1223029F1F0E0EE0F5D
:10018000FF1FE458FF4FA591B4918FB7F894EC91FD
:10019000611126C030953E233C938FBF08952730D0
:1001A000A9F02830C9F0243049F7809180008F7D74
:1001B00003C0809180008F7780938000DFCF84B56B
:1001C0008F7784BDDBCF84B58F7DFBCF8091B0006E
:1001D0008F778093B000D2CF8091B0008F7DF9CF20
:1001E0003E2BDACF3FB7F89480912D0190912E01EC
:1001F000A0912F01B091300126B5A89B05C02F3FDB
:1002000019F00196A11DB11D3FBFBA2FA92F982F3C
:100210008827BC01CD01620F711D811D911D42E037
:10022000660F771F881F991F4A95D1F708958F92FF
:100230009F92AF92BF92CF92DF92EF92FF920E9475
:10024000F2004B015C0188EEC82E83E0D82EE12C31
:10025000F12C0E94F200681979098A099B09683E0D
:10026000734081059105A8F321E0C21AD108E10885
:10027000F10888EE880E83E0981EA11CB11CC11401
:10028000D104E104F10429F7FF90EF90DF90CF90C3
:10029000BF90AF909F908F900895CF92DF92EF9292
:1002A000FF920F931F93CF93DF9300D0CDB7DEB7AC
:1002B00069834A83880F991F0091870110918801F3
:1002C000000F111FE1E3F1E09F012153314020179E
:1002D000310714F41192F8CF2981FC01EF5CFE4F35
:1002E00021838A81808360E0809185010E94A6003D
:1002F0001016110604F501501109F801EF5CFE4FCC
:10030000E080D0908301C090810188E0F82E6E2DAE
:10031000661F6627661F8C2D0E94A600EE0C61E00A
:100320008D2D0E94A60060E08D2D0E94A600FA94FB
:10033000F110EDCFDDCF61E0809185010F900F903E
:10034000DF91CF911F910F91FF90EF90DF90CF90B1
:100350000C94A600EF92FF921F93CF93DF9320910E
:1003600087013091880182179307B4F4EC0123E0F0
:10037000880F991F2A95E1F79C012F5B3E4F790169
:1003800011E0F70111927F0140E0612FCE010E9440
:100390004D011F5F1930A9F7DF91CF911F91FF9099
:1003A000EF900895CF92DF92EF92FF920F931F93F9
:1003B000CF93DF936C01062F10E0780183E0EE0C01
:1003C000FF1C8A95E1F7C1E0D0E080918701909110
:1003D0008801081719077CF4FE013197EC0DFD1D0B
:1003E0004081F701EC0FFD1FEF5CFE4F47876C2F3C
:1003F000C8010E944D012196C930D10531F7DF9126
:10040000CF911F910F91FF90EF90DF90CF900895C3
:100410001F920F920FB60F9211242F933F938F9339
:100420009F93AF93BF938091290190912A01A0914E
:100430002B01B0912C013091280123E0230F2D379F
:1004400058F50196A11DB11D209328018093290123
:1004500090932A01A0932B01B0932C0180912D0140
:1004600090912E01A0912F01B09130010196A11D14
:10047000B11D80932D0190932E01A0932F01B09375
:100480003001BF91AF919F918F913F912F910F902C
:100490000FBE0F901F90189526E8230F0296A11DFE
:1004A000B11DD2CF789484B5826084BD84B581605B
:1004B00084BD85B5826085BD85B5816085BD80912F
:1004C0006E00816080936E001092810080918100A7
:1004D000826080938100809181008160809381009F
:1004E000809180008160809380008091B100846061
:1004F0008093B1008091B00081608093B0008091C2
:100500007A00846080937A0080917A008260809380
:100510007A0080917A00816080937A0080917A00DD
:10052000806880937A001092C100D0E0C0E0C430AF
:10053000D10509F04AC0C0E0D0E090E080E00E9420
:10054000AA0181E090E00E94AA0182E090E00E946E
:10055000AA0183E090E00E94AA0160E080E291E0BD
:100560000E94D2010E94170161E088E191E00E949F
:10057000D2010E94170162E080E191E00E94D20165
:100580000E94170163E088E091E00E94D2010E947E
:10059000170160E080E091E00E94D20161E080E01C
:1005A00091E00E94D20162E080E091E00E94D201DD
:1005B00063E080E091E00E94D2010E941701209741
:1005C00009F4BBCF0E940000B8CF809187019091C1
:1005D0008801C817D9072CF441E06CE0CE010E94D5
:1005E0004D018091870190918801C817D9072CF49B
:1005F0004FE06AE0CE010E944D01CE010E94AA01A7
:10060000219695CFCF93DF93CCE0D0E0D0938201B9
:10061000C09381018BE090E09093840180938301EB
:100620008AE090E0909386018093850184E090E0D9
:1006300090938801809387018CE00E9487008091CD
:1006400083010E948700809185010E94870061E0FC
:10065000809185010E94A600D0938201C093810100
:10066000E1E4F1E081E891E011928E179F07E1F754
:10067000D0E0C0E08091870190918801C817D90728
:100680003CF540E06FE0CE010E944D018091870172
:1006900090918801C817D9072CF447E06BE0CE0190
:1006A0000E944D0140E069E0CE010E944D01CE0163
:1006B0000E94AA018091870190918801C817D907EB
:1006C0002CF440E06CE0CE010E944D012196D2CF87
:1006D000DF91CF910895EE0FFF1F0590F491E02D6B
:1006E0000994F894FFCF003C2020203C0000002219
:1006F000262A322200000024243C24240000003C4E
:0E070000203C203C0000001824247E42000013
:107E0000112484B714BE81FFF0D085E080938100F7
:107E100082E08093C00088E18093C10086E0809377
:107E2000C20080E18093C4008EE0C9D0259A86E02C
:107E300020E33CEF91E0309385002093840096BBD3
:107E4000B09BFECF1D9AA8958150A9F7CC24DD24C4
:107E500088248394B5E0AB2EA1E19A2EF3E0BF2EE7
:107E6000A2D0813461F49FD0082FAFD0023811F036
:107E7000013811F484E001C083E08DD089C08234E0
:107E800011F484E103C0853419F485E0A6D080C0E4
:107E9000853579F488D0E82EFF2485D0082F10E0AE
:107EA000102F00270E291F29000F111F8ED06801E7
:107EB0006FC0863521F484E090D080E0DECF843638
:107EC00009F040C070D06FD0082F6DD080E0C81688
:107ED00080E7D80618F4F601B7BEE895C0E0D1E017
:107EE00062D089930C17E1F7F0E0CF16F0E7DF06D8
:107EF00018F0F601B7BEE89568D007B600FCFDCFD4
:107F0000A601A0E0B1E02C9130E011968C91119780
:107F100090E0982F8827822B932B1296FA010C0160
:107F200087BEE89511244E5F5F4FF1E0A038BF0790
:107F300051F7F601A7BEE89507B600FCFDCF97BE46
:107F4000E89526C08437B1F42ED02DD0F82E2BD052
:107F50003CD0F601EF2C8F010F5F1F4F84911BD097
:107F6000EA94F801C1F70894C11CD11CFA94CF0C13
:107F7000D11C0EC0853739F428D08EE10CD085E9AC
:107F80000AD08FE07ACF813511F488E018D01DD067
:107F900080E101D065CF982F8091C00085FFFCCF94
:107FA0009093C60008958091C00087FFFCCF809118
:107FB000C00084FD01C0A8958091C6000895E0E648
:107FC000F0E098E1908380830895EDDF803219F02E
:107FD00088E0F5DFFFCF84E1DECF1F93182FE3DFCA
:107FE0001150E9F7F2DF1F91089580E0E8DFEE27F6
:047FF000FF270994CA
:027FFE00040479
:00000001FF
