:100000000C94E7050C940F060C940F060C940F0645
:100010000C940F060C940F060C940F060C940F060C
:100020000C940F060C940F060C940F060C940F06FC
:100030000C940F060C940F060C940F060C940F06EC
:100040000C94EB1A0C940F060C940F060C940F06EC
:100050000C940F060C940F060C940F060C940F06CC
:100060000C94351B0C940F0600407A10F35A00A034
:10007000724E18090010A5D4E80000E87648170071
:1000800000E40B54020000CA9A3B000000E1F505B1
:10009000000080969800000040420F000000A086FB
:1000A00001000000102700000000E803000000002D
:1000B0006400000000000A000000000001000000D1
:1000C00000002C76D888DC674F0823DFC1DFAE59EB
:1000D000E1B1B796E5E3E453C63AE651997696E87E
:1000E000E6C28426EB898C9B62ED407C6FFCEFBC02
:1000F0009C9F40F2BAA56FA5F490055A2AF75C932D
:100100006B6CF9676DC11BFCE0E40D47FEF520E662
:10011000B500D0ED902E0300943577050080841E45
:10012000080000204E0A000000C80C333333330FA0
:10013000986E12831141EF8D2114893BE65516CF3D
:10014000FEE6DB18D1844B381BF77C1D901DA4BB49
:10015000E424203284725E228100C9F124ECA1E5FE
:100160003D2700000000003E5B4F5B3E3E6B4F6B47
:100170003E1C3E7C3E1C183C7E3C181C577D571C88
:100180001C5E7F5E1C00183C1800FFE7C3E7FF0001
:1001900018241800FFE7DBE7FF30483A060E26294F
:1001A000792926407F050507407F05253F5A3CE712
:1001B0003C5A7F3E1C1C08081C1C3E7F14227F22D8
:1001C000145F5F005F5F06097F017F006689956AA3
:1001D000606060606094A2FFA29408047E0408102E
:1001E000207E201008082A1C08081C2A08081E1057
:1001F0001010100C1E0C1E0C30383E3830060E3E0F
:100200000E06000000000000005F0000000700076D
:1002100000147F147F14242A7F2A12231308646297
:1002200036495620500008070300001C22410000F8
:1002300041221C002A1C7F1C2A08083E0808008056
:1002400070300008080808080000606000201008EE
:1002500004023E5149453E00427F400072494949EF
:10026000462141494D331814127F10274545453921
:100270003C4A494931412111090736494949364625
:100280004949291E00001400000040340000000805
:1002900014224114141414140041221408020159A8
:1002A00009063E415D594E7C1211127C7F49494935
:1002B000363E414141227F4141413E7F49494941CA
:1002C0007F090909013E414151737F0808087F00F9
:1002D000417F41002040413F017F081422417F407F
:1002E0004040407F021C027F7F0408107F3E414156
:1002F000413E7F090909063E4151215E7F091929C6
:1003000046264949493203017F01033F4040403FAF
:100310001F2040201F3F4038403F631408146303F0
:10032000047804036159494D43007F41414102046F
:10033000081020004141417F040201020440404076
:100340004040000307080020545478407F2844446C
:10035000383844444428384444287F385454541886
:1003600000087E090218A4A49C787F080404780081
:10037000447D40002040403D007F10284400004163
:100380007F40007C047804787C0804047838444476
:100390004438FC1824241818242418FC7C0804046D
:1003A00008485454542404043F44243C4040207CD6
:1003B0001C2040201C3C4030403C44281028444C29
:1003C0009090907C4464544C4400083641000000F6
:1003D000770000004136080002010204023C262397
:1003E000263C1EA1A161123A4040207A385454554F
:1003F0005921555579412254547842215554784019
:1004000020545579400C1E527212395555555939A0
:100410005454545939555454580000457C410002F5
:10042000457D420001457C407D1211127DF028255A
:1004300028F07C545545002054547C547C0A097F94
:100440004932494949323A4444443A324A484830A8
:100450003A4141217A3A42402078009DA0A07D3D5A
:100460004242423D3D4040403D3C24FF2424487EE2
:100470004943662B2FFC2F2BFF0929F620C0887ECD
:10048000090320545479410000447D413048484AD2
:1004900032384040227A007A0A0A727D0D19317D85
:1004A0002629292F28262929292630484D40203859
:1004B0000808080808080808382F10C8ACBA2F1018
:1004C0002834FA00007B000008142A142222142A7F
:1004D00014085500550055AA55AA55AAFF55FF55B1
:1004E000FF000000FF00101010FF00141414FF00A4
:1004F0001010FF00FF1010F010F0141414FC001482
:1005000014F700FF0000FF00FF1414F404FC14149F
:1005100017101F10101F101F1414141F001010109C
:10052000F0000000001F101010101F10101010F02D
:1005300010000000FF101010101010101010FF100D
:10054000000000FF140000FF00FF00001F10170054
:1005500000FC04F414141710171414F404F400002D
:10056000FF00F714141414141414F700F7141414DF
:10057000171410101F101F141414F4141010F0107E
:10058000F000001F101F0000001F14000000FC14EA
:100590000000F010F01010FF10FF141414FF1410DE
:1005A00010101F00000000F010FFFFFFFFFFF0F031
:1005B000F0F0F0FFFFFF0000000000FFFF0F0F0F43
:1005C0000F0F3844443844FC4A4A4A347E0202063B
:1005D00006027E027E0263554941633844443C046E
:1005E000407E201E2006027E020299A5E7A5991CE6
:1005F0002A492A1C4C7201724C304A4D4D30304809
:10060000784830BC625A463D3E494949007E010166
:10061000017E2A2A2A2A2A44445F444440514A44FB
:100620004040444A51400000FF0103E080FF0000C9
:1006300008086B6B083612362436060F090F0600C1
:100640000018180000001010003040FF0101001FCA
:1006500001011E00191D1712003C3C3C3C0000002B
:100660000000000103070F1F3F7F0080C0E0F0F88B
:10067000FCFE005EBCE2613FDD83C29C7E20A3FDE8
:100680001F41009D23BE46DB65F88C11AF32CA576F
:10069000E974000000002300260029000000000883
:1006A0000002010000030407000000000000000039
:1006B00000000000240027002A00DB40A4A62EAF83
:1006C000DA0281DA1281DA02818F2000A1C8D30018
:1006D000408DAED580A801020408102040800102A0
:1006E000040810200102040810200000000025006A
:1006F00028002B000404040404040404020202027F
:100700000202030303030303000060000000000073
:10071000000000000000000000E0000000000000F9
:100720000000000000000001E000000000000000E8
:1007300000000000000001F00000000000000000C8
:10074000000000000003F0000000000000000000B6
:100750000000000007F000000000000000000000A2
:1007600000000007F800000000000000000000008A
:1007700000000FF800000003C0007E000001E00050
:100780007F0FF800000003C000FE000001E000FF42
:10079000EFF800000003C000FE000001E000FFFFD2
:1007A000F800000003C000F00000000F007FFE7F93
:1007B000C0000003C000F00000000F003FFE7FF803
:1007C0003FF1FBCFFCFEF3BC3DEFE01FFE7FFF7F60
:1007D000FBFFDFFEFEFFBC3DEFE01FC6FFFF7FFB20
:1007E000FFDFFEFEFFBC3DEFE00FE3C7FE787BC3FB
:1007F000DE1EF0FFBC3DEF0007FF87FC787BC3DE09
:100800001EF0F83C3DEF0001FFFFF0007BC3C01E6F
:10081000F0F03C3DEF0001F37FE03FFBC3CFFEF083
:10082000F03C3DEF0003E33F807FFBC3DFFEF0F0D1
:100830003C3DEF0007E73C00787BC3DE1EF0F03C58
:100840003DEF0007FFBE00787BC3DE1EF0F03C3DAD
:10085000EF0007FFFE00787BC3DE1EF0F03C3DEFAB
:10086000000FFFFE007FFBFFDFFEF0F03FFDEFE03B
:100870000FFFFF007FFBFFDFFEF0F03FFDEFE00F1B
:10088000F9FF003E79F9CF9EF0F01F3DE7E01FF140
:10089000FF0000000000000000000000001F80FFBB
:1008A000007FFFFFFFFFFFFFFFFFFFE01C007F0057
:1008B0007FFFFFFFFEB46D888D18E000001F007FF2
:1008C000FFFFFFFE95AD7DB577E000000F007FFFD5
:1008D000FFFFFEA5AD9D8D19E0000006007FFFFF24
:1008E000FFFEB5ADEDB57EE0000000000001800028
:1008F0000000000000000000038000000000000075
:1009000000000007C000000000000000000007C059
:100910000000000000000000000FC0000000000008
:10092000000000001FE00000000000000000001FA9
:10093000E00000000000000000003FE000000000B8
:1009400000000000003FF000000000000000000078
:100950007FF0000000000000001FF87FF0000000A2
:10096000000000003FFE7FF0000000000000003F9C
:10097000FF7FF0000000000000001FFFFBE0000010
:1009800000000000000FFFF9FFC0000000000000A1
:100990000FFFF9FFF800000000000007FFF1FFFF64
:1009A00000000000000003FC73FFFF800000000057
:1009B0000001FE3FFFFF80000000000000FF1E0F4F
:1009C000FF000000000000007FFE1FFC0000000090
:1009D0000000003FFFFFF8000000000000000FDFF4
:1009E000FFE0000000000000001F19FFC000000031
:1009F000000000003F3CFF00000000000000007EFF
:100A00007CF800000000000000007FFE7C00000079
:100A10000000000000FFFFFC0000000000000000DC
:100A2000FFFFFE0000000000000000FFFFFE0000CE
:100A3000000000000001FFEFFE00000000000000C9
:100A400001FFCFFE0000000000000003FF07FE00D2
:100A500000000000000003FC07FE00000000000092
:100A60000003F003FE00000000000000018000FE13
:100A7000000000000000000000007E0000000000F8
:100A800000000000003E0000000000000000000028
:100A90000C000000000000078000FC000003C00004
:100AA0000000078001FC000003C000000007800177
:100AB000FC000003C0000000078001E00000001EF1
:100AC000000000078001E00000001E007FE3F79FA8
:100AD000F9FDE7787BDFC0FFF7FFBFFDFDFF787B07
:100AE000DFC0FFF7FFBFFDFDFF787BDFC0F0F787BA
:100AF000BC3DE1FF787BDE00F0F787BC3DE1F0789C
:100B00007BDE0000F787803DE1E0787BDE007FF749
:100B1000879FFDE1E0787BDE00FFF787BFFDE1E026
:100B2000787BDE00F0F787BC3DE1E0787BDE00F00B
:100B3000F787BC3DE1E0787BDE00F0F787BC3DE164
:100B4000E0787BDE00FFF7FFBFFDE1E07FFBDFC069
:100B5000FFF7FFBFFDE1E07FFBDFC07CF3F39F3DCC
:100B6000E1E03E7BCFC0000000000000000000007C
:100B700000FFFFFFFFFFFFFFFFFFFFC0FFFFFFFFC3
:100B8000FD68DB111A31C0FFFFFFFFFD2B5AFB6A26
:100B9000EFC0FFFFFFFFFD4B5B3B1A33C0FFFFFFC2
:100BA000FFFD6B5BDB6AFDC000030205000305016E
:100BB000040602041F1C1F1E1F1E1F1F1E1F1E1FB8
:100BC00000FF2F26002200FF2100801CF6221124A6
:100BD0001FBECFEFD8E0DEBFCDBF23E0A8E6B1E077
:100BE00001C01D92AD31B207E1F711E0A0E0B1E024
:100BF000E2E0F2E502C005900D92A836B107D9F700
:100C000015E0C6EED5E004C02197FE010E94F02653
:100C1000C53ED107C9F70E94071D0C94F4280C9417
:100C2000000091E090936702809366021092650243
:100C300010926402089508958091DA019091DB0189
:100C4000891B990B089508950895AF92BF92CF9292
:100C5000DF92EF92FF920F931F93CF93DF936C017C
:100C60007B018B01040F151FEB015E01AE18BF085D
:100C7000C017D10759F06991D601ED91FC9101900F
:100C8000F081E02DC6010995892B79F7C501DF9127
:100C9000CF911F910F91FF90EF90DF90CF90BF9079
:100CA000AF900895FC01448155816081718184E792
:100CB00092E00C942506833081F028F4813099F07D
:100CC0008230A9F008958730A9F08830C9F08430C7
:100CD000B1F4809180008F7D03C0809180008F7778
:100CE00080938000089584B58F7784BD089584B57E
:100CF0008F7DFBCF8091B0008F778093B0000895F7
:100D00008091B0008F7DF9CFCF93DF93282F30E013
:100D1000F901E456F94F8491F901EA52F94FD4915F
:100D2000F901EC50F94FC491CC23A1F081110E943C
:100D30005B06EC2FF0E0EE0FFF1FEE56F94FA5918A
:100D4000B491EC91ED2381E090E009F480E0DF9133
:100D5000CF91089580E090E0FACF1F93CF93DF9377
:100D6000282F30E0F901E456F94F8491F901EA5255
:100D7000F94FD491F901EC50F94FC491CC23A9F06B
:100D8000162F81110E945B06EC2FF0E0EE0FFF1F83
:100D9000E651F94FA591B4918FB7F894EC911111E8
:100DA00008C0D095DE23DC938FBFDF91CF911F91D8
:100DB0000895DE2BF8CFCF93DF9390E0FC01EA5249
:100DC000F94F24918C50994FFC0184918823D1F0E4
:100DD00090E0880F991FFC01E055F94FA591B4915F
:100DE000FC01E651F94FC591D49161110EC09FB736
:100DF000F8948C91E22FE0958E238C932881E22346
:100E0000E8839FBFDF91CF9108958FB7F894EC915D
:100E1000E22BEC938FBFF6CF3FB7F8948091D101CE
:100E20009091D201A091D301B091D40126B5A89B95
:100E300005C02F3F19F00196A11DB11D3FBFBA2F6C
:100E4000A92F982F8827BC01CD01620F711D811D2C
:100E5000911D42E0660F771F881F991F4A95D1F7B1
:100E600008958F929F92AF92BF92CF92DF92EF92AE
:100E7000FF926B017C010E940C074B015C01C114C5
:100E8000D104E104F104B9F00E940C076819790952
:100E90008A099B09683E73408105910580F321E032
:100EA000C21AD108E108F10888EE880E83E0981E86
:100EB000A11CB11CE4CFFF90EF90DF90CF90BF90CA
:100EC000AF909F908F900895DC0180E0615090F08A
:100ED0009D919827E92FEF70F0E0EE58F94F24919B
:100EE000E92FE295EF70F0E0EE57F94FE491822F91
:100EF0008E27ECCF0895DC012C911196ED91FC9199
:100F0000F8948181822B81839281322F30959323B3
:100F1000928387E090E00197F1F7818183238183B9
:100F200083E290E00197F1F790817894EFECF0E0A4
:100F30003197F1F7922381E009F480E00895FC01F4
:100F400090810180F281E02D292F209560FF14C04F
:100F5000F8948281822382838181892B8183A3E219
:100F6000B0E01197F1F78281982B9283789487ED06
:100F700090E00197F1F70895F894828182238283AB
:100F80008181892B8183AFEFB0E01197F1F78281E6
:100F9000982B928378948FE090E0EBCFDF92EF92E2
:100FA000FF920F931F93CF93DF93EC01D62EE42E85
:100FB00008E010E0FF24F39461E08D2D8F2109F407
:100FC00060E0CE010E949F07FF0C01501109A1F7BC
:100FD000E11010C0F894E981FA81918188818095AF
:100FE00089238183E981FA8192818881809589238F
:100FF00082837894DF91CF911F910F91FF90EF90B2
:10100000DF900895EF92FF920F931F93CF93DF939A
:101010008C017B0140E065E50E94CE07E70188E096
:10102000E80EF11C699140E0C8010E94CE07CE1580
:10103000DF05C1F7DF91CF911F910F91FF90EF90E6
:101040000895FC0190810180F281E02DF894818166
:10105000292F20958223818378943DE743E050E057
:10106000315029F1DA011197F1F780818923C1F319
:10107000F8948281822382838181892B8183789471
:10108000ABE7B7E01197F1F7F89481818223818370
:10109000A3E1B1E01197F1F78081982381E009F095
:1010A00080E07894E3E6F6E03197F1F7089580E088
:1010B00008958F929F92AF92BF92CF92DF92EF925C
:1010C000FF92CF93DF93EC018E819F810E942108D4
:1010D00040E06CEC8E819F810E94CE07488164E4E1
:1010E0008E819F810E94CE078A818823E1F1E98168
:1010F000E9506EEE72E0E33038F4F0E0EE0FFF1FDF
:10110000EA5FFE4F608171818B818823B9F188810C
:10111000811134C08FB7F8948090CD019090CE01AA
:10112000A090CF01B090D0018FBF6B01770FEE0878
:10113000FF088E819F810E947B078130A1F02FB72D
:10114000F8948091CD019091CE01A091CF01B09102
:10115000D0012FBF8C199D09AE09BF0988159905CB
:10116000AA05BB0530F3DF91CF91FF90EF90DF90A0
:10117000CF90BF90AF909F908F900895072E000C56
:10118000880B990BDF91CF91FF90EF90DF90CF907C
:10119000BF90AF909F908F900C9431076F927F9289
:1011A0008F929F92AF92BF92CF92DF92EF92FF9277
:1011B0000F931F93CF93DF93EC017B018A018E8104
:1011C0009F810E942108811102C090E037C0B701C1
:1011D0008E819F810E94020840E06EEB8E819F818C
:1011E0000E94CE077801680189E0C80ED11CAE804C
:1011F000BF8088E0882E912C712C66246394C501F1
:101200000E947B0781117628660CE1E08E1A910816
:10121000B1F7F70171927F01EC15FD0541F78E8161
:101220009F810E942108813081F668E0C8010E94F8
:10123000640791E0F80120852813C7CF892FDF913B
:10124000CF911F910F91FF90EF90DF90CF90BF90C3
:10125000AF909F908F907F906F9008950F931F9302
:10126000CF93DF93CDB7DEB729970FB6F894DEBFE3
:101270000FBECDBF8B01AE014F5F5F4F0E94CE0806
:10128000811105C060E070E08EEF92EC3CC06A8195
:1012900070E0762F6627770F770F770F298148E068
:1012A000249F90011124262B372BF8018081803157
:1012B000D1F4688570E08F81AB01481B5109CA01E8
:1012C0009695982F8827979587950E94BA26CB01E7
:1012D0004097B90153E0660F771F5A95E1F76078A0
:1012E0009C01260F371F213854EE35075CF2B901F7
:1012F000330F880B990B0E945C2520E030E040E022
:101300005CE30E94972529960FB6F894DEBF0FBEC6
:10131000CDBFDF91CF911F910F910895CF93DF93B0
:10132000CDB7DEB729970FB6F894DEBF0FBECDBF9D
:10133000FB012081203199F0AE014F5F5F4F0E9489
:10134000CE08882331F08D818F33A9F020F48F31BE
:10135000A1F080E007C08F3521F08F37D1F78CE006
:1013600001C08BE029960FB6F894DEBF0FBECDBF4B
:10137000DF91CF9108958AE0F5CF89E0F3CFEF9226
:10138000FF920F931F93CF93DF93EC01EC80FD80CE
:101390006E157F050CF070C057FF04C0240F351F79
:1013A00050E040E08E819F81FA01E20FF31F8E171B
:1013B0009F071CF49C01241B350B121613060CF01E
:1013C0005BC0922F842F8695869586958E9DD00141
:1013D0008F9DB00D11246A0F7B1FAF8DB8A1A60F92
:1013E000B71F477049F188E0841B482F682F70E0D1
:1013F000FB01E659F94FE491281708F063C0621B1E
:1014000071092FEF30E002C0359527956A95E2F714
:10141000E2230130110539F0B0F10230110561F518
:101420008C91E82702C08C91E82BEC93941720F163
:101430002C813D81A20FB31FE92FE41BE83078F027
:101440000230110521F58E2F9C9190959C932C8153
:101450003D81A20FB31F88508830B0F7E770EE23AC
:1014600059F0F0E0EE59F94FE49101301105F9F02F
:1014700010F10230110519F1DF91CF911F910F91F9
:10148000FF90EF900895E0958C91E823CECF81E016
:101490000115110509F480E081959E2F8C932C8114
:1014A0003D81A20FB31F98509830C0F7D7CF8C91D1
:1014B000E82BEC93E1CFE0958C91E823FACF8C9167
:1014C000E827F7CF0130110509F4ADCFE0F2023083
:1014D000110509F4A5CFAE0DBF1DAECF0F931F931D
:1014E000CF93DF9377FF04C0260F371F70E060E0D3
:1014F000DC011496CD91DC91FB01E20FF31FCE17B6
:10150000DF071CF49E01261B370B121613064CF541
:10151000FA0157FD3796A3E0F595E795AA95E1F70F
:10152000EC9FD001ED9FB00DFC9FB00D11246A0F10
:101530007B1FDC015F96ED91FC91E60FF71F477072
:10154000552781E090E001C0880F4A95EAF7482FBF
:101550000130110559F0A8F02E0F3F1F0230110580
:10156000E1F0DF91CF911F910F9108952E0F3F1F52
:10157000E217F307B1F38191DF011197842B8C936C
:10158000F7CF80952E0F3F1FE217F30751F391918C
:10159000DF01119798239C93F7CFE217F30709F324
:1015A0008191DF01119784278C93F7CF0F931F93BD
:1015B000FA01DC0156964C9156974230E9F04330DF
:1015C000A1F1413061F514964D915C91DA01AE1BA9
:1015D000BF0BFD01E21BF30B77FD0BC0DC01169680
:1015E0004D915C916417750724F4AB01BF010E9413
:1015F0006E0A1F910F91089514964D915C91DA0136
:10160000A61BB70BBD0161507109DC0116964D9107
:101610005C91DA01AE1BBF0BFD01E21BF30B77FD02
:10162000E8CFAF010E94BF09E4CF16964D915C91BF
:10163000DA01A61BB70BBD0161507109CDCF0F9325
:101640001F93FA01DC0156964C9156974230A9F04F
:10165000433091F1413019F514964D915C91DA01C6
:10166000AE1BBF0BFD013197F7FD04C0AB01BF01FD
:101670000E94BF091F910F91089514964D915C919E
:10168000DA01A61BB70BBD01DC0116964D915C91EA
:10169000DA01AE1BBF0BFD013197621B730BF7FD27
:1016A000E9CFDC0116964D915C91E417F50714F72C
:1016B000AF010E946E0ADECF16964D915C91DA0161
:1016C000A61BB70BBD01621B730BCECFFC0177FDD0
:1016D00064C080859185681779070CF05EC057FD5E
:1016E0005CC082859385481759070CF056C08689DF
:1016F0008230B1F0833029F1813041F484819581C9
:10170000841B950BAB01BC0161507109213031057F
:1017100009F108F443C02230310509F463C008958B
:1017200084819581DC01A61BB70BBD016150710955
:1017300086819781DC01A41BB50BAD014150510995
:10174000E5CF86819781861B970BBA01AC0141508A
:101750005109DCCFCA0157FD0796A3E095958795FF
:10176000AA95E1F7A481B5818A9F90018B9F300DE6
:101770009A9F300D1124620F731F078CF0A1E02D8A
:10178000E60FF71F4770552721E030E001C0220F18
:101790004A95EAF78081822B80830895CA0157FD1C
:1017A000079633E0959587953A95E1F7A481B58141
:1017B0008A9F90018B9F300D9A9F300D1124620FEC
:1017C000731F078CF0A1E02DE60FF71F4770552718
:1017D00081E090E001C0880F4A95EAF780959081FA
:1017E0008923DACFCA0157FD079623E0959587959F
:1017F0002A95E1F7A481B5818A9F90018B9F300DD6
:101800009A9F300D1124620F731F078CF0A1E02DF9
:10181000E60FF71F4770552721E030E001C0220F87
:101820004A95EAF780818227B7CF08958EBD0000E0
:101830000DB407FEFDCF8EB508958CBD9DBD0895F6
:101840000895FC016370668B8481958126813781C0
:10185000613039F0633029F09187808733872287A0
:101860000895318720879387828708952F923F922A
:101870004F925F926F927F928F929F92AF92BF92A0
:10188000CF92DF92EF92FF920F931F93CF93DF934C
:10189000CDB7DEB76A970FB6F894DEBF0FBECDBFE7
:1018A0009A8F898F7A8369834A01D22E18870F8392
:1018B0003701BC2CDC0159962D913C915A9721158A
:1018C000310509F015C118968D919C9119976817EB
:1018D00079070CF0D7C11A968D919C91481759073A
:1018E0000CF0D0C14C2C512CB6E0CB9E600D711D7C
:1018F00011247C876B87161617060CF0C3C1EA2DDE
:10190000F0E0FA87E98793E0EE0FFF1F9A95E1F781
:10191000F88BEF87CF01840F951F181619060CF06E
:10192000B1C1A98DBA8D58968C91811104C0BFEABE
:10193000BD1508F4D394A98DBA8DED91FC91119742
:101940000284F385E02DCD010995B5E0DB9EC00151
:101950001124E981FA81FC83EB83312C212C9C0139
:101960002E593E4F388F2F8B4A2D50E05E8B4D8B7A
:10197000EF89F88DE20DF31D44919E828D82D12C6A
:10198000C12C69817A81620D731D7A8B698B842FDA
:1019900090E09C8B8B8BE98DFA8DA081B18140FF0B
:1019A00082C0F1E0BF126FC0AF126DC01C96ED9106
:1019B000FC912F813885A4014C0D5D1D69897A89C0
:1019C000898D9A8D0995EB89FC89F595E7954E2FC0
:1019D0005FEFC51AD50A6D817E818D899E89680F5A
:1019E000791F7E836D8398E0C916D10481F6AFEF2D
:1019F0002A1A3A0AEB81FC81E40DF51DFC83EB8386
:101A0000F5E02F16310409F0B3CF2F813885261564
:101A10003705B9F0A98DBA8DED91FC91B1E0BB12FB
:101A200057C0AB1255C069817A816B5F7F4F0088C8
:101A3000F189E02D830128E030E0A401898D9A8DA1
:101A40000995A98DBA8DED91FC9111970688F789BA
:101A5000E02DCD016A960FB6F894DEBF0FBECDBF64
:101A6000DF91CF911F910F91FF90EF90DF90CF907A
:101A7000BF90AF909F908F907F906F905F904F90AE
:101A80003F902F9009941E96ED91FC91EF80F88481
:101A900009851A8592014D815E816B817C81898DDA
:101AA0009A8D099590CF2F8138852615370509F431
:101AB0008ACF31E0B31207C0A31205C01C96ED9186
:101AC000FC91930178CF1E96ED91FC917301E0CFCC
:101AD0006B857C85641975090684F785E02D730193
:101AE0000F8518899201A401898D9A8D0995A9CF36
:101AF000F90134969491329745915491D91AB7E0EF
:101B0000DB9E400D511D1124F901259134913C8B30
:101B10002B8BFA0125903490FA013296749031960D
:101B20003491398B329664903196449041E04C1553
:101B300018F04A1508F07FC0662D062C000C770BB4
:101B40007C836B83842D042C000C990B9E838D83E6
:101B5000A98DBA8DED91FC9111970284F385E02D4A
:101B6000CD010995512CD12CC12CEA2DF0E0FA873A
:101B7000E9872B2D30E03C872B87A401440D511DB4
:101B800047FC5A95588F4F8B69817A81660D711D7C
:101B900067FC7A957E876D877989C71608F051CFE3
:101BA0002C2D30E04D815E81420F531FA985BA85EF
:101BB0004A9FC0014B9F900D5A9F900D1124FC012C
:101BC000E80DF91DF88BEF87852D612C4F89588D15
:101BD000420F531F5E8B4D8B671408F050C0442496
:101BE0004394480E877041F4C1010196EB89FC894A
:101BF000E20DF31DD4901C01D7FE19C0A98DBA8D3A
:101C0000ED91FC91662D70E0B1E0BB1219C0AB12F2
:101C100017C02D853E85620F731F0484F585E02D66
:101C20002F8138854D895E89898D9A8D0995DD0CC6
:101C30006394842DD1CF1E821D821C821B8288CF8B
:101C40004B815C81640F751FAB85BC856A9FC001A9
:101C50006B9F900D7A9F900D112469817A81680F96
:101C6000791F0684F785E02DEF80F88409851A85B1
:101C70009D014F855889898D9A8D0995D8CF570C2C
:101C8000C3948ACF6A960FB6F894DEBF0FBECDBF5D
:101C9000DF91CF911F910F91FF90EF90DF90CF9048
:101CA000BF90AF909F908F907F906F905F904F907C
:101CB0003F902F9008958F929F92AF92CF92EF9284
:101CC000FF920F931F93CF93DF93EC01262F898D03
:101CD0009A8D009709F051C06A30D1F41D861C8698
:101CE0008D8948E0849F900111248E859F85820F05
:101CF000931F9F878E8781E090E0DF91CF911F91A6
:101D00000F91FF90EF90CF90AF909F908F9008959C
:101D10006D3089F3CC88AD888F898823C1F08C859C
:101D20009D8536E0C39E800D911D112448855985FF
:101D30004817590764F44E855F851D861C8638E078
:101D4000A39EC0011124840F951F9F878E87EA8868
:101D5000FB88088919894E855F856C857D85CE0154
:101D60000E94360C2C898C859D8546E0249F800D31
:101D7000911D11249D878C87BECF6A3069F41D8622
:101D80001C86FC013696E4912D898E859F85E29F05
:101D9000800D911D1124ADCF6D3009F4ACCFFC0145
:101DA00034963491631708F4A6CF3196E491E61780
:101DB00008F4A1CFFC01329685909490462F431BE6
:101DC000342F47E0349F800C911C1124F40132968B
:101DD00034913196E4913323A9F1EE2399F1CC8823
:101DE000F4013596E491AD884F89442301F10E2E1C
:101DF000000CFF0BE30FF11DCE9EA001CF9E500DF6
:101E000011246C857D85460F571F68857985641779
:101E100075076CF44E855F851D861C86FC01369621
:101E2000E491AE9E400D511D11245F874E87EA88D4
:101E3000FB88088919894E855F856C857D85CE0173
:101E40000E94360CF4013496E4912C898C859D8592
:101E5000E29F800D911D11248DCF67EF84E792E002
:101E60000C945B0E6F927F928F929F92AF92BF9273
:101E7000CF92DF92EF92FF920F931F93CF93DF9356
:101E8000EC016B015A0139014801E881F9810284B2
:101E9000F385E02D0995E881F9810288F389E02D29
:101EA00087019301A501B601CE010995A501480D51
:101EB000591D41505109E881F9810288F389E02DCB
:101EC0009301B601CE010995E881F9810088F18975
:101ED000E02D9401A501B601CE010995C60CD71CD1
:101EE000B60161507109E881F9810088F189E02D1E
:101EF0009401A501CE010995E881F9810688F78949
:101F0000E02DCE01DF91CF911F910F91FF90EF90C7
:101F1000DF90CF90BF90AF909F908F907F906F9009
:101F200009946F927F928F929F92AF92BF92CF92BD
:101F3000DF92EF92FF920F931F93CF93DF935C0199
:101F4000EB016A01490138018701DC01ED91FC9147
:101F50006217730719F5641675062CF0962D872DF8
:101F60003A01C92ED82E9601261937092F5F3F4F07
:101F7000048CF58DE02DA301BE01C5010995DF910B
:101F8000CF911F910F91FF90EF90DF90CF90BF9076
:101F9000AF909F908F907F906F9008954615570552
:101FA00091F42617370724F0892D4B01C22FD82F23
:101FB0009E01281939092F5F3F4F068CF78DE02DC0
:101FC000A601B401DACF0284F385E02D0995D5018D
:101FD000ED91FC910488F589E02D83019401A6011F
:101FE000BE01C5010995D501ED91FC910688F789DF
:101FF000E02DC501DF91CF911F910F91FF90EF90E0
:10200000DF90CF90BF90AF909F908F907F906F9018
:102010000994EF92FF920F931F93DC011A960D9192
:102020001C911B9718962D913C911997ED91FC915D
:1020300000A0F1A1E02D7B0150E040E070E060E005
:1020400009951F910F91FF90EF9008954F925F9225
:102050006F927F928F929F92AF92BF92CF92DF92B8
:10206000EF92FF920F931F93CF93DF936C012B019D
:102070005A0139014801DC01ED91FC910284F3859C
:10208000E02D0995E201640C751CD601ED91FC91DF
:10209000C615D7055CF40088F189E02D870194010D
:1020A000A501BE01C60109952196EFCF0688F789E3
:1020B000E02DC601DF91CF911F910F91FF90EF901E
:1020C000DF90CF90BF90AF909F908F907F906F9058
:1020D0005F904F9009948F929F92AF92BF92CF9250
:1020E000DF92EF92FF920F931F93CF93DF93EC0158
:1020F0005B014A016901E881F9810284F385E02DE1
:10210000099595012C0D3D1D21503109E881F9817A
:102110000488F589E02D78018401A401B501CE0180
:102120000995E881F9810688F789E02DCE01DF91D4
:10213000CF911F910F91FF90EF90DF90CF90BF90C4
:10214000AF909F908F9009948F929F92AF92BF9281
:10215000CF92DF92EF92FF920F931F93CF93DF9373
:10216000EC015B014A0169017801E881F98102848F
:10217000F385E02D0995C80CD91C86010150110981
:10218000E881F9810488F589E02D9501A401B50164
:10219000CE010995E881F9810688F789E02DCE0105
:1021A000DF91CF911F910F91FF90EF90DF90CF9033
:1021B000BF90AF909F908F900994EF92FF920F93F2
:1021C0001F93DC01ED91FC9100A0F1A1E02D099598
:1021D0001F910F91FF90EF9008950F931F93DC01D3
:1021E000ED91FC91068CF78DE02D09951F910F91D3
:1021F00008950F931F93DC01ED91FC91048CF58DF4
:10220000E02D09951F910F910895DC01ED91FC914E
:102210000084F185E02D09943F924F925F926F9276
:102220007F928F929F92AF92BF92CF92DF92EF9266
:10223000FF920F931F93CF93DF935C017B014A01C1
:102240006901390187E0680E711C93E07594679409
:102250009A95E1F72B01400E511E10E000E0312C61
:10226000D0E0C0E0CE0187709927330C892B59F458
:10227000FE0183E0F595E7958A95E1F7E00FF11F00
:10228000E80DF91D349037FE0AC021E030E0A701C7
:10229000B5016C0F7D1F84E792E00E940511219625
:1022A000CC16DD06F9F68FEFE81AF80A060D171DB1
:1022B000E414F504A9F6DF91CF911F910F91FF90DF
:1022C000EF90DF90CF90BF90AF909F908F907F90D6
:1022D0006F905F904F903F9008952F923F924F9252
:1022E0005F926F927F928F929F92AF92BF92CF92A6
:1022F000DF92EF92FF920F931F93CF93DF9300D063
:1023000000D000D0CDB7DEB73C016A013E832D83FB
:10231000FC82EB825801A41AB50AB7FE03C0B1943F
:10232000A194B1088D809E80861A970A97FE03C0FB
:102330009194819491088A149B045CF0902F812FD2
:102340000D811E819D838E839C2D8D2D6B01692FA8
:10235000782F0C151D055CF09D818E817E836D8329
:10236000692F782F902F812F8601C92ED82E160124
:10237000201A310A2B012D813E81421A530A57FE41
:1023800003C0519441945108710137FE03C03FEFDF
:10239000E31AF30AF594E7948D819E8186179707D7
:1023A0005CF5A1E0B0E0BA83A983C016D1064CF178
:1023B000D301ED91FC910484F585E02D2B813C81C6
:1023C000A8016D817E818A149B041CF04D815E8181
:1023D000B801C3010995E418F508F7FE0AC02D817C
:1023E0003E8189819A81280F391F3E832D83E20C1B
:1023F000F31C0F5F1F4FD9CF2FEF3FEF3A83298395
:10240000D4CF26960FB6F894DEBF0FBECDBFDF91B6
:10241000CF911F910F91FF90EF90DF90CF90BF90E1
:10242000AF909F908F907F906F905F904F903F9074
:102430002F90089508952091A901260F3327331F67
:1024400021323105ECF420915E02FC0190E080E045
:10245000243069F082E00895A091A9012191AC0196
:1024600047575E4FA40FB52FB11D2C9301968617C9
:1024700098F38091A901680F6093A90180E0089505
:1024800081E008959B01AC0160E074E284EF90E08C
:102490000E94CE2620513109410951095695479590
:1024A000379527952093B800089510925E0281E039
:1024B00080933D021092380261E082E10E94AD06F5
:1024C00061E083E10E94AD06E9EBF0E080818E7F60
:1024D000808380818D7F808388E48093B80085E449
:1024E0008093BC000895CF93DF9391E0909388018F
:1024F0008823B9F0C091B800D091BA008091BC0097
:102500008A7B8093BC0060E082E10E94AD0660E0BF
:1025100083E10E94AD060E945512D093BA00C09389
:10252000B800DF91CF910895CF92DF92EF92FF92A2
:102530000F931F93CF93DF93D82FC62F613208F0EC
:1025400098C00E940C076B017C0180915E02811192
:102550006BC081E080935E0280933D029FEF909379
:102560003C0210923B029C0F90933A0280933902F6
:1025700080913902DD0FD82BD09339028091380237
:10258000813009F078C0109238020E940C076B016C
:102590007C01809139028093BB0080916002909110
:1025A0006102A0916202B0916302892B8A2B8B2B6E
:1025B000A1F00E940C07009160021091610220912D
:1025C0006202309163026C197D098E099F0906171A
:1025D00017072807390708F448C08091BC0083FD1D
:1025E000D8CF85EC8093BC000E940C076B017C0166
:1025F00080915E02813009F440C080913B028C17CB
:1026000010F4C0913B02E8E1F2E0AEE3B2E080E01A
:102610008C1355C08C2FDF91CF911F910F91FF909C
:10262000EF90DF90CF9008958091600290916102C9
:10263000A0916202B0916302892B8A2B8B2B09F443
:1026400084CF0E940C0700916002109161022091DA
:102650006202309163026C197D098E099F09061789
:1026600017072807390708F070CF80915F020E9492
:102670007312C0E0CFCF85EEB5CF8091600290910C
:102680006102A0916202B0916302892B8A2B8B2B8D
:1026900009F4AECF0E940C07009160021091610214
:1026A00020916202309163026C197D098E099F09A5
:1026B000061717072807390708F09ACFD6CF919148
:1026C0009D938F5FA5CFE091DB018091DA01E81740
:1026D00030F4F0E0E25CFD4F808190E008958FEFF0
:1026E0009FEF08959091DB018091DA012FEF3FEF8A
:1026F000981748F4E92FF0E0E25CFD4F208130E0CC
:102700009F5F9093DB01C9010895CF92DF92EF9212
:10271000FF920F931F93CF93DF937C01CB018A012C
:1027200020916702222389F0EB016B01C40ED51EB4
:10273000CC15DD0569F06991D701ED91FC9101900F
:10274000F081E02DC7010995F3CF642F0E941B1281
:10275000C801DF91CF911F910F91FF90EF90DF9013
:10276000CF900895CF93DF931F92CDB7DEB76983E3
:10277000209167022223F9F020916402203258F060
:1027800021E030E0FC013383228390E080E00F9071
:10279000DF91CF91089580916502E82FF0E0E8592C
:1027A000FE4F998190838F5F8093650280936402CE
:1027B00081E090E0ECCF61E0CE0101960E941B1217
:1027C000F7CFCF92DF92EF92FF920F931F93CF93A9
:1027D000DF93D091640281E0D13208F09CC0C091B7
:1027E00066020E940C076B017C0180915E028111E0
:1027F0006CC082E080935E0281E080933D028FEFA7
:1028000080933C0210923B02D0933A02A8E6B1E0DA
:10281000E8E1F2E080E0D8138DC010923902809197
:102820003902CC0FC82BC093390280913802813015
:1028300009F084C0109238020E940C076B017C01E1
:10284000809139028093BB00809160029091610277
:10285000A0916202B0916302892B8A2B8B2BA1F08D
:102860000E940C07009160021091610220916202A7
:10287000309163026C197D098E099F0906171707AD
:102880002807390708F442C08091BC0083FDD8CFE7
:1028900085EC8093BC000E940C076B017C01809149
:1028A0005E02823009F44CC080913C028F3F09F4F3
:1028B00069C080913C02803209F466C080913C027C
:1028C000803309F463C084E026C080916002909157
:1028D0006102A0916202B0916302892B8A2B8B2B3B
:1028E00009F483CF0E940C070091600210916102ED
:1028F00020916202309163026C197D098E099F0953
:10290000061717072807390708F06FCF80915F0275
:102910000E94731285E01092650210926402109278
:102920006702DF91CF911F910F91FF90EF90DF90A1
:10293000CF9008959D9191938F5F6DCF85EEA9CF34
:102940008091600290916102A0916202B091630255
:10295000892B8A2B8B2B09F4A2CF0E940C070091A4
:1029600060021091610220916202309163026C1941
:102970007D098E099F09061717072807390708F0F0
:102980008ECFC4CF80E0C7CF82E0C5CF83E0C3CF76
:10299000FF920F931F93CF93DF93F82ED92FC62F5B
:1029A0008091910290919202892B09F447C0809105
:1029B00095020E9411068091910290919202DC0191
:1029C000ED91FC910190F081E02D60E009950F2DD3
:1029D0001D2FD1E0C1508091910290919202CF3F82
:1029E00031F1D03298F00E94E113809195020E945B
:1029F00011068091910290919202DC01ED91FC917F
:102A00000190F081E02D60E00995D1E08091910284
:102A100090919202F8016491DC01ED91FC9101909A
:102A2000F081E02D0995DF5F0F5F1F4FD3CFDF915E
:102A3000CF911F910F91FF900C94E113E091A102AF
:102A4000F091A20290818091A702809589238083D2
:102A50000F2D1D2FC15008F438C0F801849120912A
:102A60008F0230919002232B29F00E94160C0F5FE9
:102A70001F4FF0CF28E030E040E8E0919D02F09158
:102A80009E029091A502582F5423D9F05081952B86
:102A90009083E0919F02F091A00290815091A60254
:102AA000952B9083E0919F02F091A002508190912C
:102AB000A602909595239083469521503109E9F619
:102AC000D6CF508190959523E3CFDF91CF911F9181
:102AD0000F91FF9008951F93CF93DF93EC018D8D9D
:102AE0009E8D892BF9F0162F89A10E9411068D8DDC
:102AF0009E8DDC01ED91FC910190F081E02D60E074
:102B000009958D8D9E8DDC01ED91FC910190F081F8
:102B1000E02D612F09958D8D9E8DDF91CF911F91B5
:102B20000C94E113ADA5BEA59C918BA9809589233A
:102B30008C938B8D9C8D892B31F0862FDF91CF91DB
:102B40001F910C94160C28E030E080E8A9A5BAA5E6
:102B500099A9462F4823C1F04C91942B9C93ABA587
:102B6000BCA59C914AA9942B9C93ABA5BCA54C9168
:102B70009AA9909594239C9386952150310931F719
:102B8000DF91CF911F9108954C9190959423E6CFBA
:102B9000FF920F931F93CF93DF93809191029091B7
:102BA0009202892B09F479C06091AB027091AC025A
:102BB0008091AD029091AE020E94421265E085ECD8
:102BC0009BE00E94C81460917802615084E792E013
:102BD0000E946B1520917A0230917B02C901079601
:102BE00097FD079623E0959587952A95E1F7209123
:102BF000780230917902829F8001839F100D929F0D
:102C0000100D1124C0919302D091940280919102F1
:102C1000909192020C0F1D1F892B09F46DC08091B9
:102C200095020E9411068091910290919202DC011E
:102C3000ED91FC910190F081E02D60E40995FF2475
:102C4000F39480919102909192020C171D07E1F18B
:102C5000BFE1BF15A0F40E94E113809195020E948C
:102C600011068091910290919202DC01ED91FC910C
:102C70000190F081E02D60E40995FF24F3948091A8
:102C80009102909192026991DC01ED91FC91019089
:102C9000F081E02D0995F394D4CF80918F0290912B
:102CA0009002892B31F08091A9029091AA020E9492
:102CB0001D0CE091A302F091A40290818091A802E2
:102CC0008095892380837ACF0E94E11380919102BD
:102CD00090919202892B09F450C06091AF027091DB
:102CE000B0028091B1029091B202DF91CF911F9119
:102CF0000F91FF900C944212E091A102F091A20278
:102D000080819091A702892B80830C171D07F1F217
:102D1000899120918F0230919002232B19F00E940B
:102D2000160CF3CF28E030E040E8E0919D02F091EE
:102D30009E029091A502582F5423D9F05081952BD3
:102D40009083E0919F02F091A00290815091A602A1
:102D5000952B9083E0919F02F091A0025081909179
:102D6000A602909595239083469521503109E9F666
:102D7000CCCF508190959523E3CFE091A302F091C1
:102D8000A40280819091A802892B8083DF91CF914A
:102D90001F910F91FF9008951F93CF93DF93EC0144
:102DA000162F8D8D9E8D892BC9F06FA978AD89ADB9
:102DB0009AAD0E94421266EA111167EACE010E94A2
:102DC0006B158D8D9E8D892BC9F06BAD7CAD8DAD56
:102DD0009EADDF91CF911F910C9442128B8D9C8DF3
:102DE000892B21F08DA99EA90E941D0CEFA5F8A9A1
:102DF00090818CA9809589238083DDCFEFA5F8A9E8
:102E000080819CA9892B8083DF91CF911F910895A8
:102E100090E080E00895BF92CF92DF92EF92FF9210
:102E20000F931F93CF93DF93EC01B62EC72E8D85A2
:102E3000811105C0CE010E94210881110EC01B86A0
:102E40001D861C8680E0DF91CF911F910F91FF902E
:102E5000EF90DF90CF90BF90089540E060EFCE01FB
:102E60000E94CE0701E0E12CD12C11E0CE010E949E
:102E70007B07F82ECE010E947B0791E0F91218C063
:102E8000813099F51134D8F2DB86D11002C081E08F
:102E90008D878B81882399F22396EB2DFC2DCF0112
:102EA000089629912193E817F907D9F781E0CBCF4C
:102EB000EE2DF0E0F8120FC08B851817A0F4DE019C
:102EC000AE0FBF1F13968C91802379F4F12C19302B
:102ED00008F41C87D12EEC0FFD1F8381902F909555
:102EE000892383830AC08113F1CFFE01EE0DF11D0A
:102EF0008381802B8383FF24F3946F2DCE010E9466
:102F00009F071F5F000F11F4E39401E087E08E1527
:102F100008F0ACCFB7CFDF92EF92FF920F931F93E1
:102F2000CF93DF937C018B01D42EDC011696ED91BB
:102F3000FC911386158614861286118610861782D8
:102F40001682158214821382C0E0B801F7018681CF
:102F500097810E940B17D82F882329F0DC1629F0BF
:102F6000CF5FDC1690F7D0E009C067E0C8010E948F
:102F70006407D80117969C918913F2CF8D2FDF91AA
:102F8000CF911F910F91FF90EF90DF900895CF9216
:102F9000DF92EF92FF920F931F93CF93DF93CDB702
:102FA000DEB761970FB6F894DEBF0FBECDBF8C01C0
:102FB0007B010E948E09893091F4DD24D3948D2DFC
:102FC00061960FB6F894DEBF0FBECDBFDF91CF91F3
:102FD0001F910F91FF90EF90DF90CF900895AE0179
:102FE0004F5F5F4FB701C8010E94CE08D82E8823DB
:102FF00031F3F7018081803101F38FE18D83F80196
:10300000868197810E942108B701F8018681978106
:103010000E94020840E06EE4F801868197810E94D8
:10302000CE0740E06B81F801868197810E94CE0730
:1030300040E06C81F801868197810E94CE07F701FC
:103040008081803139F040E06D81F801868197817F
:103050000E94CE07F801868197810E942108B7015E
:10306000F801868197810E940208F801408168E496
:10307000868197810E94CE0764E170E080E090E055
:103080000E943107F8018081882331F06AE070E006
:1030900080E090E00E943107F801868197810E94CC
:1030A0002108F80181818A3018F489E0818387CF73
:1030B00089E08183F12CE12CF80184818E151F04B5
:1030C00009F00CF47CCF4E2DBE01665F7F4FC80126
:1030D0000E948B17F801C180BE01665F7F4FC80157
:1030E0000E948E098C1540F4F8018181F8018183DA
:1030F000FFEFEF1AFF0AE0CFBE01665F7F4FC80106
:103100000E948E09F3CFEF92FF920F931F93CF93FC
:10311000DF93CDB7DEB728970FB6F894DEBF0FBEAA
:10312000CDBF8C01DC011696ED91FC9117971386AB
:1031300015861486128611861086178216821582CD
:103140001482138214961C92149715961C92FF24D5
:10315000F394BE016F5F7F4FF801868197810E94D3
:103160000B17882309F463C067E0CE0101960E9423
:10317000640798858913EDCFD8018C91811125C002
:1031800016968D919C910E942108BE016F5F7F4F22
:10319000F801868197810E94020840E064EBD80123
:1031A00016968D919C910E94CE07F8018681978199
:1031B0000E947B07E82ED80116968D919C910E9463
:1031C0002108E11002C0F801F082D8011196EC90BC
:1031D000BE016F5F7F4FC8010E948E098E15D0F42B
:1031E000F8018181D80111968C93119714968C91D6
:1031F00014978F5F14968C938981883231F088F40C
:10320000803119F0823209F0A4CFF80185818F5FF7
:1032100085839FCFBE016F5F7F4FC8010E948E09DB
:10322000E1CF8B3391F3823409F093CFEECF289620
:103230000FB6F894DEBF0FBECDBFDF91CF911F91C7
:103240000F91FF90EF90089520917A0230917B02C8
:10325000C901079697FD079623E0959587952A95CE
:10326000E1F72091780230917902829FA001839F3B
:10327000500D929F500D112470E060E080919302F8
:10328000909194020C94E6288F929F92AF92BF92F5
:103290000F931F93CF93DF93CDB7DEB7A1970FB6F0
:1032A000F894DEBF0FBECDBF19A2423008F44AE049
:1032B0008E010F5D1F4F842E912CB12CA12CA501E6
:1032C00094010E94CE26E62FB901CA01EA3044F5E6
:1032D000E05DD801EE938D01232B242B252B79F76C
:1032E00090E080E0109769F0FD0101900020E9F77F
:1032F0003197AF014A1B5B0BBD0184E792E00E944E
:103300002506A1960FB6F894DEBF0FBECDBFDF91A4
:10331000CF911F910F91BF90AF909F908F90089584
:10332000E95CD7CF41E050E06AE471E084E792E0E5
:103330000C9425060E94D8280F931F93CF93DF93F8
:10334000EC0188819981009759F02A813B812617E9
:10335000370730F081E0DF91CF911F910F910895F1
:103360008B016F5F7F4F0E941B28009759F0998354
:1033700088831B830A832C813D81232B59F7FC0111
:103380001082E8CF80E0E7CFCF93DF93EC01888114
:103390009981009711F00E949227198218821D824C
:1033A0001C821B821A82DF91CF9108950F931F9385
:1033B000CF93DF93EC010C811D810F5F1F4FB8018C
:1033C0000E949C19882391F0288139818C819D81EC
:1033D00063E571E0820F931F0E94ED281D830C832B
:1033E000CE01DF91CF911F910F910895CE010E94E0
:1033F000C419F6CFEF92FF920F931F93CF93DF93F1
:10340000EC017B01198218821B821A821D821C82A8
:10341000FB0101900020E9F731978F01061B170B84
:10342000B8010E949C19811109C0CE01DF91CF9192
:103430001F910F91FF90EF900C94C4191D830C8382
:10344000B70188819981DF91CF911F910F91FF90F2
:10345000EF900C94ED28CF92DF92EF92FF920F93B2
:103460001F93CF93DF93CDB7DEB7A1970FB6F89434
:10347000DEBF0FBECDBF7C01CB01BA01F7011182C7
:10348000108213821282158214828E010F5F1F4FE9
:1034900022E044E00E9405236C01009771F0FC01DA
:1034A00001900020E9F731978F01081B190BB80133
:1034B000C7010E949C19811112C0C7010E94C41942
:1034C000A1960FB6F894DEBF0FBECDBFDF91CF91AE
:1034D0001F910F91FF90EF90DF90CF900895F7012B
:1034E00015830483B601808191810E94ED28E8CF85
:1034F000EF92FF920F931F93CF93DF93EC01FB01A9
:10350000E080F180E114F10411F1048115810115CD
:103510001105A9F08C819D81080F191FB801CE01FA
:103520000E949C19882399F0288139818C819D8182
:10353000B701820F931F0E94ED281D830C83CE01DB
:10354000DF91CF911F910F91FF90EF900895CE01E1
:103550000E94C419F4CFFC0180819181009711F081
:103560000C949227089585ED8093BC0080916002B1
:1035700090916102A0916202B09163020796A11D31
:10358000B11D23E0B695A795979587952A95D1F714
:103590002091BC0024FD03C010925E02089540916A
:1035A0006002509161026091620270916302452B4A
:1035B000462B472B69F30097A105B10541F025E3A0
:1035C0002A95F1F700000197A109B109E1CF809197
:1035D0005F020C9473121F920F920FB60F92112478
:1035E0002F933F938F939F93AF93BF938091CD0180
:1035F0009091CE01A091CF01B091D0013091CC013A
:1036000023E0230F2D3758F50196A11DB11D2093FE
:10361000CC018093CD019093CE01A093CF01B093C4
:10362000D0018091D1019091D201A091D301B091AC
:10363000D4010196A11DB11D8093D1019093D201B7
:10364000A093D301B093D401BF91AF919F918F917B
:103650003F912F910F900FBE0F901F90189526E865
:10366000230F0296A11DB11DD2CF1F920F920FB64C
:103670000F9211242F933F934F935F936F937F93F8
:103680008F939F93AF93BF93EF93FF938091B90074
:10369000887F803609F44AC0F0F5883209F4A7C063
:1036A00018F5803109F49BC0B8F4882309F4F9C0F7
:1036B000883009F494C0FF91EF91BF91AF919F9131
:1036C0008F917F916F915F914F913F912F910F90CB
:1036D0000FBE0F901F901895883109F488C0803272
:1036E00051F780933C0214C0803409F49DC040F42B
:1036F0008033B9F38833F9F680933C0285ECB0C08F
:10370000803509F485C0883509F496C0883499F667
:103710000E94B31AD0CF883909F48CC038F58837A5
:1037200029F050F4883611F0803729F683E0809331
:103730005E021092CB0157C0883809F47BC08039F3
:1037400019F0803809F0B7CF8091CB01803208F0B2
:1037500071C0E091CB0181E08E0F8093CB0180910D
:10376000BB00F0E0E555FE4F80833DC0803B39F063
:10377000E0F4803A09F479C0883A09F09CCF84E0FB
:1037800080935E021092AA011092A901E091D601E5
:10379000F091D70109958091A90181110FC081E0B5
:1037A0008093A9011092890109C0803C09F4A6CF39
:1037B000883C09F4A3CF883B09F07DCFE091AA01B2
:1037C00081E08E0F8093AA01F0E0E757FE4F8081E1
:1037D0008093BB009091AA018091A90129C080919A
:1037E00039028093BB0085EC8093BC0064CF90913C
:1037F0003B0280913A02981758F5E0913B0281E034
:103800008E0F80933B02F0E0E85EFD4F8081E9CFB0
:10381000E0913B0281E08E0F80933B028091BB00E0
:10382000F0E0E85EFD4F808390913B0280913A0288
:103830009817C8F285E8D8CFE0913B0281E08E0F5F
:1038400080933B028091BB00F0E0E85EFD4F8083F7
:1038500080913D0281115CCF81E08093380284EA3F
:103860008093BC0010925E0226CF85EC8093BC0052
:1038700010925E028091CB01803230F4E091CB0156
:10388000F0E0E555FE4F10826091CB0170E0E091D1
:10389000D801F091D9018BEA91E009951092CB0102
:1038A0000ACF10923C0234CF1F93CF93DF93EC01E9
:1038B000162F60E0812F0E94DB06612F70E0FB0174
:1038C000EA52F94FE491E883FB01EC50F94FE4919F
:1038D000F0E0EE0FFF1FEE56F94F859194919A8319
:1038E00089831B861D861C861A86198618861F8268
:1038F0001E821D821C821B82DF91CF911F91089531
:10390000CF93DF93E8E6F2E01382128288EE93E031
:10391000A0E0B0E084839583A683B78380E191E043
:103920009183808368E08BE093E00E94541CE7EF72
:10393000F2E08BE093E097838683148215821082F5
:10394000D9E0D183C1E0C283C383138A128A67E0BE
:1039500089EE92E00E94541CE5EDF2E089EE92E0DF
:1039600097838683148215821082D183C283C38396
:10397000138A128A66E087EC92E00E94541CE3EB03
:10398000F2E087EC92E0978386831482158210829E
:10399000D183C283C383138A128AE4E7F2E01382DD
:1039A000128220E830E03583248380E490E097831E
:1039B00086833187208793878287168A15861486A7
:1039C00017861686C58BC48B8FEF9FEF938B828BE8
:1039D000918B808BC78B108E128E118E82E291E0BC
:1039E00091838083148E138E168E158E10A2178EDF
:1039F000D4A38AE085A38BE086A38CE087A38DE027
:103A000080A780E585AB16AADF91CF910895CF936B
:103A1000DF93CDB7DEB7A0970FB6F894DEBF0FBE29
:103A2000CDBF789484B5826084BD84B5816084BD47
:103A300085B5826085BD85B5816085BD80916E004C
:103A4000816080936E00109281008091810082607D
:103A500080938100809181008160809381008091BA
:103A600080008160809380008091B10084608093A9
:103A7000B1008091B00081608093B00080917A00A5
:103A8000846080937A0080917A00826080937A00CB
:103A900080917A00816080937A0080917A008068BA
:103AA00080937A001092C10060E081E00E94DB0602
:103AB00060E082E00E94DB06809193029091940284
:103AC000892B11F10E94241920917A0230917B02F6
:103AD0008091780290917902213231050CF070C00A
:103AE000B9016052710977FF02C06F5F7F4F759512
:103AF00067958357910997FD019600E210E023E74F
:103B000030E048E057E06FC020917A0230917B02AC
:103B1000C901079697FD0796B3E095958795BA95E5
:103B2000E1F72091780230917902AC01429FC00107
:103B3000439F900D529F900D11240E94F626909362
:103B4000940280939302892B09F0BCCF11E010936B
:103B500088021093890281E090E09093870280931D
:103B6000860290938502809384020E942419109209
:103B7000DB0110926502109264020E94551283E2EA
:103B800096E09093D7018093D60184E296E09093DB
:103B9000D9018093D80188E60E9411066EE088E67C
:103BA00092E00E94B21388E692E00E94E11361E085
:103BB00088E60E9494128093DA018111DDC1FFCF63
:103BC000B9016054710977FF02C06F5F7F4F75952F
:103BD00067958255910997FD019600E410E022E572
:103BE00030E048EE58E0959587950E940C1182E0F0
:103BF000809396028091910290919202892B09F410
:103C0000B0C080917A0290917B02809709F4A7C09E
:103C10008DE3809395021092DB011092DA011092ED
:103C20006502109264020E94551283E296E090931E
:103C3000D7018093D60184E296E09093D9018093D6
:103C4000D80180919C0287FD1EC061E00E94DB06C6
:103C500061E080919C020E94AD0661E070E080E02E
:103C600090E00E94310760E080919C020E94AD06C6
:103C70006AE070E080E090E00E94310761E08091AE
:103C80009C020E94AD068091910290919202892B34
:103C900009F426C16091AB027091AC028091AD0233
:103CA0009091AE020E94421264E082ED96E00E9482
:103CB000C81460917A02615084E792E00E946B150B
:103CC00064E08EEC96E00E94C8148091960264E154
:103CD000813009F460E184E792E00E946B1564E0B2
:103CE0008AEC96E00E94C814809178029091790243
:103CF0008038910509F01FC180917A0290917B0272
:103D00008032910509F003C164E086EC96E00E94E0
:103D1000C81469ED84E792E00E946B1580919602C9
:103D200061EF813009F462E284E792E00E946B1552
:103D300066E08AEB96E00E94C8148091910290910F
:103D40009202892B09F40EC16091AF027091B0020A
:103D50008091B1029091B2020E944212F7CE8CE3A0
:103D600058CF61E080919A020E94DB0661E0809169
:103D70009B020E94DB0680919A02082E000C990B90
:103D8000FC01EC50F94FE491F0E0EE0FFF1FE6511B
:103D9000F94F259134913093A2022093A102FC01A6
:103DA000EA52F94FE491E093A70280919B02082E1A
:103DB000000C990BFC01EC50F94FE491F0E0EE0F90
:103DC000FF1FE651F94FA591B491B093A402A093BF
:103DD000A302FC01EA52F94FE491E093A8028C910E
:103DE000E82BEC9380918F0290919002892B09F43B
:103DF00034C01FB7F8948091D501811127C0EEEF30
:103E0000F6E08491E0EEF6E09491E82FF0E0EE0F1A
:103E1000FF1FE055F94FA591B491EC91E92321F4EE
:103E200061E08AE00E94AD0661E08AE00E94DB0664
:103E30008CB580618CBD8CB580648CBD61E08DE0FB
:103E40000E94DB0661E08BE00E94DB068091D501D9
:103E50008F5F8093D5011FBFF4CE61E080919802FF
:103E60000E94DB0661E0809199020E94DB0680914E
:103E70009802082E000C990BFC01EC50F94FE491CC
:103E8000F0E0EE0FFF1FE651F94F2591349130938A
:103E90009E0220939D02FC01EA52F94FE491E093C7
:103EA000A50280919902082E000C990BFC01EC50A0
:103EB000F94FE491F0E0EE0FFF1FE651F94FA591A5
:103EC000B491B093A002A0939F02FC01EA52F94F73
:103ED000E491E093A6028C91E095E823EC93B1CEB7
:103EE00080918F0290919002892B31F08091A902EC
:103EF0009091AA020E941D0CE091A302F091A402ED
:103F000090818091A802809589238083CDCE8034D2
:103F1000910509F0FECE63E083EC96E00E94C814A0
:103F2000809196026FEC813009F46FE984E792E0AA
:103F30000E946B15EECE8036910509F0EACE809195
:103F40007A0290917B02409709F0E3CE63E080EC27
:103F500096E00E94C814809196026FEA813031F792
:103F600060E1E4CFE091A302F091A40280819091FE
:103F7000A802892B8083EACD88E692E00E94721322
:103F8000082F88E692E00E94E11388E60E9411065D
:103F90006EE088E692E00E94B213602F6B7388E6B1
:103FA00092E00E94B21388E692E00E94E11380ED55
:103FB00097E0909301028093000210930202109305
:103FC000030210920402109205021092060286E08B
:103FD0008093070280E795E3ADE6B8E3809308029B
:103FE00090930902A0930A02B0930B0288E60E9404
:103FF000110660E088E692E00E94B21360E088E675
:1040000092E00E94B21363E288E692E00E94B2134B
:1040100060E188E692E00E94B213E9EAFBE0849155
:1040200090E08D52964F67E070E00E94A626682FC0
:10403000811101C067E088E692E00E94B21368E057
:1040400088E692E00E94B21362E088E692E00E9465
:10405000B21369E188E692E00E94B21360E088E65C
:1040600092E00E94B21388E692E00E94E11387EF8B
:1040700092E00E94831840E068EF71E087EF92E0E1
:104080000E948B1768EF71E087EF92E00E94C717DC
:1040900085ED92E00E94831840E06CEE71E085EDC2
:1040A00092E00E948B176CEE71E085ED92E00E9429
:1040B000C71783EB92E00E94831840E060EE71E046
:1040C00083EB92E00E948B1760EE71E083EB92E04D
:1040D0000E94C7178E010F5F1F4FE4E1EE2EF12CF7
:1040E000F2E36F2E712C72E0C72EDD24D3940E9470
:1040F000241988E60E94110660E088E692E00E949A
:10410000B21388E692E00E94E11367E088E60E941D
:1041100094121092DB018093DA01811101C0FFCF6C
:104120005E015FE0A50EB11C88E692E00E9472136A
:10413000982F92959F708F706AE0969F800D112442
:1041400090E0F501929382935F010E171F0761F7CC
:1041500088E692E00E94E11349815A81CA018053A6
:10416000984F90930102809300026B81609302024A
:104170002D813E81209303027F8170930702898401
:1041800080920402AB84A0920502BD84B092060224
:104190003327E4EBFBE071E0761730F4A4912A0FAB
:1041A000311D7F5F3196F8CF623039F4BA01637008
:1041B0007727672B11F42F5F3F4F8D5C97409695C3
:1041C0008795969587956DE671E0469FF001479F2C
:1041D000F00D569FF00D11248E0F9F1F0197280F91
:1041E000391FA8E1B0E00E949726282C312C512CD1
:1041F000412C9B01AC01220D331D441D551DACE328
:10420000B0E00E9455269B01AC012A0D311D411DD5
:10421000511D0E9455266B0D711D811D911D605908
:104220007A4C8249974C60930802709309028093FC
:104230000A0290930B028CE0E0E0F2E0DE011F96B0
:1042400001900D928A95E1F78CE0FE013F96ACE07B
:10425000B2E001900D928A95E1F787EF92E00E941B
:10426000590868EF71E087EF92E00E942E09609391
:10427000F4017093F5018093F6019093F701C092D9
:104280008802C092890288E190E090938102809335
:104290008002F0928302E09282024AE0C201B10100
:1042A0000E9444190E9492196091110270E090E0FE
:1042B00080E04AE00E9444190E9492196091120223
:1042C00070E090E080E04AE00E944419D0928802B9
:1042D000D09289021092810210928002E6E3F0E00F
:1042E000F0938302E09382024091F4015091F50132
:1042F0006091F6017091F701C8010E942B1A6CE4DD
:1043000071E0CE014B960E94FA19B801CE014B968E
:104310000E94781A0E94D6190E945206CE014B962E
:104320000E94AB1AC8010E94AB1A0E942D0F0E9476
:10433000C81581E00E948406019709F0C5C087EF87
:1043400092E00E94590868EF71E087EF92E00E94C6
:104350002E094B015C018092F4019092F501A0922C
:10436000F601B092F70185ED92E00E9459086CEEDB
:1043700071E085ED92E00E942E096093E801709350
:10438000E9018093EA019093EB0183EB92E00E94B4
:10439000590860EE71E083EB92E00E942E09609371
:1043A000DC017093DD018093DE019093DF010E94B8
:1043B0002419D0928802D0928902F0928102E09270
:1043C00080024AE050E05093830240938202B5019C
:1043D000A401C8010E942B1A6CE471E0CE014B9637
:1043E0000E94FA19B801CE014B960E94781A0E94D9
:1043F000D6190E945206CE014B960E94AB1AC801F4
:104400000E94AB1A0E942D0FF0928102E09280026E
:104410006EE170E070938302609382024091E80144
:104420005091E9016091EA017091EB01C8010E948D
:104430002B1A65E571E0CE014B960E94FA19B8017E
:10444000CE014B960E94781A0E94D6190E945206FD
:10445000CE014B960E94AB1AC8010E94AB1A0E9473
:104460002D0FF0928102E09280027092830260929E
:1044700082024091DC015091DD016091DE0170917A
:10448000DF01C8010E942B1A6EE571E0CE014B9648
:104490000E94FA19B801CE014B960E94781A0E9428
:1044A000D6190E945206CE014B960E94AB1AC80143
:1044B0000E94AB1A0E942D0F0E94C81560ED77E094
:1044C00080E090E00E94310782E00E948406209103
:1044D000910230919202019709F055C0232BE1F12E
:1044E0006091AB027091AC028091AD029091AE02EE
:1044F0000E94421262E083EC9BE00E94C81460E0DC
:1045000084E792E00E946B1560E084E792E00E94ED
:104510006B156FE084E792E00E946B1563E080EC1E
:104520009BE00E94C8148091910290919202892B85
:1045300009F452C06091AF027091B0028091B10253
:104540009091B2020E94421280E090E0892B09F41F
:10455000CECD0E940000C7CD80918F029091900235
:10456000892B31F08091A9029091AA020E941D0C22
:10457000E091A302F091A40290818091A80280951D
:1045800089238083B7CF232B81F06091AB02709198
:10459000AC028091AD029091AE020E9442126EE296
:1045A00084E792E00E946B15BECF80918F029091BC
:1045B0009002892B31F08091A9029091AA020E9469
:1045C0001D0CE091A302F091A40290818091A802B9
:1045D000809589238083E3CFE091A302F091A40228
:1045E00080819091A802892B8083AECF82E291E0F6
:1045F000909375028093740280919302909194023B
:10460000009711F00C9492270895EF920F931F9347
:10461000CF93DF93E80134E047FD34E1042E000C32
:10462000550B57FF03C0519541955109E32E022FB9
:10463000242FAE010E942323CE01DF91CF911F9141
:104640000F91EF900895A9E0B0E0E9E2F3E20C9455
:1046500066266A01F22EB02E102FFBE3AF2EA016B5
:1046600008F41BE31F5F012F27E0AE014F5F5F4F90
:104670000E948224BC018981982F9970913009F49D
:104680003FC09BE2E1FC04C09E2D9170E0FC3AC06B
:104690005E2D5071E82FE87083FF46C084E09111D1
:1046A00001C083E0EF2DE81B8F1508F0E0E0D60194
:1046B0008E2F20E2552351F1992329F0D6019C93A6
:1046C000C60101966C0196012D5F3F4FE2FE24C0AA
:1046D0008EE4D6018C9391E411969C9311971296D7
:1046E0008C93D9018E2F90E281111BC0E20FF32F22
:1046F000F11D10828EEF9FEF2996ECE00C9482263C
:104700009DE2C6CF90E2C4CF2D9381508111FCCFA2
:10471000CE0ED11CE0E0D0CF8EE6D6018C9391E690
:10472000DBCF9D938150E0CF482F447082FF3DC086
:1047300084E0911101C083E08F1510F4EF2DE81B88
:10474000D6018E2F20E2552309F1992329F0D601B5
:104750009C93C60101966C0196012D5F3F4FE2FECE
:104760001BC089E4D6018C938EE411968C9311972B
:1047700086E412968C93D9018E2F90E2882309F457
:10478000B5CF9D938150FACF2D9381508111FCCFED
:10479000CE0ED11CE0E0D9CF89E6D6018C938EE60F
:1047A00011968C93119786E6E4CF9B0177FF02C0A8
:1047B00030E020E0A1E0B0E0911102C0B0E0A0E064
:1047C000F9013196AE0FBF1F8B2C912CBB2009F441
:1047D00061C05401EFEFAE1ABE0AAA0DBB1DFA1656
:1047E0001B0619F014F04F2D4A1B511188C0E3FC31
:1047F00059C07601A42FB0E2A1114FC0C40ED11C44
:10480000992309F45BC040E0D6011196F60190832C
:104810006D01552309F448C0012F060F9A81582FC6
:10482000507184FF03C0913309F4015010160CF04D
:1048300047C0093008F008E0EEE2FE2E5B01A01A46
:10484000B10885019194819491082F3F320729F492
:10485000D601FC92F60131966F016217730794F14D
:10486000021713077CF5DB01A21BB30BAA24A39448
:10487000B12CAC0EBD1EAA0DBB1D11968C91215002
:104880003109D601119628153905F4F0F601808317
:104890006D01DBCFB12CA12CA0CFF701B1937F012B
:1048A000A150AACF9111B0CFD601942F50E302C0EE
:1048B0005D9391509111FCCFC40ED11C40E0ACCF60
:1048C00001E0BACF80E3DBCF6217730731F4963390
:1048D00088F4953311F4552369F0F6018083FD01C6
:1048E000842F90E2811108C0A40FB11D1C9290E0AA
:1048F00080E002CF81E3F1CF91938150F3CF91110A
:1049000083CF8ACF283008F027E03327DA01990FC8
:10491000311D87FD916000966105710539F43260A3
:104920002E5F3D9330E32A95E1F708959F3F30F0E5
:1049300080387105610509F03C5F3C5F3D93913023
:1049400008F08068911DDF93CF931F930F93FF9220
:10495000EF92192F987F9695E92F96959695E90FE6
:10496000FF27EE53FF4F99273327EE24FF24A7019B
:10497000E70105900894079428F4360FE71EF81E07
:10498000491F511D660F771F881F991F0694A1F7B5
:104990000590079428F4E70EF81E491F561FC11D05
:1049A000770F881F991F661F0694A1F7059007943B
:1049B00028F4F80E491F561FC71FD11D880F991FD5
:1049C000661F771F0694A1F70590079420F4490FFE
:1049D000561FC71FD81F990F661F771F881F069481
:1049E000A9F784911095177041F0D695C795579502
:1049F0004795F794E7941A95C1F7E8E6F0E06894D4
:104A00001590159135916591959105907FE273957B
:104A1000E118F10A430B560BC90BD009C0F7E10CA2
:104A2000F11E431F561FC91FD01D7EF4703311F4B1
:104A30008A95E6CFE894015030F0080F0AF4002779
:104A4000021708F4202F2395022F7A3328F079E3F8
:104A50007D932A95E9F710C07D932A9589F60694EF
:104A600097956795379517951794E118F10A430BB9
:104A7000560BC90BD00998F023957E9173957A3324
:104A800008F070E37C932013B8F77E9170617D93FA
:104A900030F0839571E37D9370E32A95E1F711245B
:104AA000EF90FF900F911F91CF91DF91992787FD94
:104AB00090950895E89409C097FB3EF490958095F1
:104AC000709561957F4F8F4F9F4F9923A9F0F92FD4
:104AD00096E9BB279395F695879577956795B79552
:104AE000F111F8CFFAF4BB0F11F460FF1BC06F5F38
:104AF0007F4F8F4F9F4F16C0882311F096E911C04A
:104B0000772321F09EE8872F762F05C0662371F06A
:104B100096E8862F70E060E02AF09A95660F771F7E
:104B2000881FDAF7880F9695879597F908950E9460
:104B3000AA250C941B260E940D2638F00E941426EC
:104B400020F0952311F00C9404260C940A261124CD
:104B50000C944F260E942C2670F3959FC1F3950F5D
:104B600050E0551F629FF001729FBB27F00DB11DF1
:104B7000639FAA27F00DB11DAA1F649F6627B00D81
:104B8000A11D661F829F2227B00DA11D621F739F6A
:104B9000B00DA11D621F839FA00D611D221F749F78
:104BA0003327A00D611D231F849F600D211D822FBF
:104BB000762F6A2F11249F5750409AF0F1F08823E6
:104BC0004AF0EE0FFF1FBB1F661F771F881F915013
:104BD0005040A9F79E3F510580F00C9404260C9498
:104BE0004F265F3FE4F3983ED4F38695779567951B
:104BF000B795F795E7959F5FC1F7FE2B880F911D3D
:104C00009695879597F9089597F99F6780E870E0E2
:104C100060E008959FEF80EC089500240A94161632
:104C2000170618060906089500240A94121613069A
:104C3000140605060895092E0394000C11F4882328
:104C400052F0BB0F40F4BF2B11F460FF04C06F5F44
:104C50007F4F8F4F9F4F089557FD9058440F551F1A
:104C600059F05F3F71F04795880F97FB991F61F0EE
:104C70009F3F79F087950895121613061406551F65
:104C8000F2CF4695F1DF08C0161617061806991FD1
:104C9000F1CF86957105610508940895E894BB27C6
:104CA00066277727CB0197F908950E949726A59F3D
:104CB000900DB49F900DA49F800D911D1124089517
:104CC0002F923F924F925F926F927F928F929F921C
:104CD000AF92BF92CF92DF92EF92FF920F931F930A
:104CE000CF93DF93CDB7DEB7CA1BDB0B0FB6F894BB
:104CF000DEBF0FBECDBF09942A88398848885F84FB
:104D00006E847D848C849B84AA84B984C884DF806B
:104D1000EE80FD800C811B81AA81B981CE0FD11D4F
:104D20000FB6F894DEBF0FBECDBFED010895A29F70
:104D3000B001B39FC001A39F700D811D1124911D6F
:104D4000B29F700D811D1124911D0895AA1BBB1BDC
:104D500051E107C0AA1FBB1FA617B70710F0A61B7B
:104D6000B70B881F991F5A95A9F780959095BC019C
:104D7000CD01089597FB072E16F4009407D077FD18
:104D800009D00E94A62607FC05D03EF49095819597
:104D90009F4F0895709561957F4F0895A1E21A2E57
:104DA000AA1BBB1BFD010DC0AA1FBB1FEE1FFF1FCF
:104DB000A217B307E407F50720F0A21BB30BE40B1F
:104DC000F50B661F771F881F991F1A9469F7609566
:104DD0007095809590959B01AC01BD01CF01089520
:104DE000EE0FFF1F0590F491E02D09940F931F9390
:104DF000CF93DF938230910510F482E090E0E09150
:104E00001B03F0911C0330E020E0B0E0A0E03097FD
:104E100099F42115310509F44AC0281B390B2430B7
:104E20003105D8F58A819B816115710589F1FB01F6
:104E300093838283FE0111C04081518102811381DD
:104E400048175907E0F04817590799F4109761F08F
:104E500012960C93129713961C933296CF01DF9102
:104E6000CF911F910F91089500931B0310931C0382
:104E7000F4CF2115310551F04217530738F0A9013D
:104E8000DB019A01BD01DF01F801C1CFEF01F9CFCC
:104E900090931C0380931B03CDCFFE01E20FF31F01
:104EA000819391932250310939832883D7CF209160
:104EB000190330911A03232B41F420910201309100
:104EC000030130931A0320931903209100013091BC
:104ED00001012115310541F42DB73EB74091040180
:104EE00050910501241B350BE0911903F0911A0331
:104EF000E217F307A0F42E1B3F0B2817390778F0B1
:104F0000AC014E5F5F4F2417350748F04E0F5F1F0F
:104F100050931A0340931903819391939FCFF0E02C
:104F2000E0E09CCFCF93DF930097E9F0FC0132974C
:104F300013821282A0911B03B0911C03ED0130E09B
:104F400020E01097A1F420813181820F931F2091DE
:104F5000190330911A032817390709F061C0F0933B
:104F60001A03E0931903DF91CF910895EA01CE1758
:104F7000DF07E8F54A815B819E0141155105B1F7D4
:104F8000E901FB83EA8349915991C40FD51FEC17BE
:104F9000FD0761F4808191810296840F951FE901DC
:104FA00099838883828193819B838A83F0E0E0E008
:104FB00012968D919C9113970097B9F52D913C9184
:104FC0001197CD010296820F931F20911903309102
:104FD0001A032817390739F6309751F510921C0338
:104FE00010921B03B0931A03A0931903BCCFD38371
:104FF000C28340815181840F951FC817D90761F47E
:105000004E5F5F4F88819981480F591F51834083BC
:105010008A819B81938382832115310509F0B0CF6A
:10502000F0931C03E0931B039ECFFD01DC01C0CF76
:1050300013821282D7CFB0E0A0E0E1E2F8E20C9454
:1050400062268C01009751F4CB010E94F6268C0158
:10505000C801CDB7DEB7E0E10C947E26FC01E60F77
:10506000F71F9C0122503109E217F30708F49DC095
:10507000D901CD91DC911197C617D70798F0C530AB
:10508000D10530F3CE0104978617970708F3C61BA6
:10509000D70B2297C193D1936D937C93CF010E943C
:1050A0009227D6CF5B01AC1ABD0A4C018C0E9D1E17
:1050B000A0911B03B0911C03512C412CF12CE12C2D
:1050C000109731F58091190390911A03881599056D
:1050D00009F05CC04616570608F058C080910001E0
:1050E00090910101009741F48DB79EB74091040162
:1050F00050910501841B950BE817F90708F055C07E
:10510000F0931A03E0931903F90171836083A0CF30
:105110008D919C91119712966C90129713967C909A
:105120001397A815B90559F56C0142E0C40ED11CBE
:10513000CA14DB0420F1AC014A195B09DA011296AA
:10514000159780F06282738251834083D9016D93F9
:105150007C93E114F10471F0D7011396FC93EE9364
:10516000129776CF22968C0F9D1FF9019183808331
:10517000F301EFCFF0931C03E0931B0369CF4816B4
:10518000590608F42C017D01D3019ACFCB010E946E
:10519000F6267C01009749F0AE01B8010E94DD2897
:1051A000C8010E949227870153CF10E000E050CF42
:1051B00081E090E0F8940C94F428FB01DC0102C03B
:1051C00001900D9241505040D8F70895DC0101C084
:1051D0006D9341505040E0F70895FB01DC010190D0
:1051E0000D920020E1F7089515E0C6EED5E004C069
:1051F000FE010E94F0262196C73ED107C9F7F89418
:02520000FFCFDE
:1052020000001D0380005E00BC007701000000006A
:10521200B213851308171B061C06721363130000D2
:1052220000005B0E250608171A12660B1B060511F5
:10523200DD10F910ED106D111B06210CCC16D60AEB
:105242001F0B26100910910F320F3A0054656D7032
:1052520020313A200054656D7020323A20005465A6
:085262006D7020333A200000BA
:00000001FF
