:100000000C945E000C9486000C9486000C94860080
:100010000C9486000C9486000C9486000C94990233
:100020000C9486000C9486000C9486000C94860038
:100030000C9486000C9486000C9486000C94860028
:100040000C944F020C9486000C941B030C94F50244
:100050000C9486000C9486000C9486000C94860008
:100060000C9486000C948600000000080002010039
:100070000003040700000000000000000200000070
:1000800000250028002B0000000000240027002A83
:100090000004040404040404040202020202020331
:1000A000030303030301020408102040800102043B
:1000B00008102001020408102000E70411241FBECC
:1000C000CFEFD8E0DEBFCDBF11E0A0E0B1E0E8E3C4
:1000D000FAE002C005900D92A431B107D9F721E0F2
:1000E000A4E1B1E001C01D92AB3CB207E1F710E022
:1000F000CEE5D0E004C02197FE010E941405CD3565
:10010000D107C9F70E944D030C941A050C94000006
:1001100090E0FC01EB55FF4F24918F569F4FFC015F
:100120008491882399F090E0880F991FFC01E9578A
:10013000FF4FA591B491FC01E358FF4F8591949135
:100140008FB7F894EC91E22BEC938FBF08953FB7F3
:10015000F8948091C7019091C801A091C901B09114
:10016000CA0126B5A89B05C02F3F19F00196A11D15
:10017000B11D3FBFBA2FA92F982F8827BC01CD01F1
:10018000620F711D811D911D42E0660F771F881F50
:10019000991F4A95D1F708959091000189130DC0D8
:1001A000ECE7F0E0E4919FEF90930001E13009F477
:1001B00031C068F1E23009F433C090E0FC01E85945
:1001C000FF4F2491FC01EB55FF4F3491FC01EF569A
:1001D000FF4FE491EE23D1F0222351F0233009F4B4
:1001E0003AC078F5213009F43CC0223009F43DC012
:1001F000F0E0EE0FFF1FE358FF4FA591B4918FB7CA
:10020000F894EC9130953E233C938FBF0895109263
:100210006E00D3CF90916F009D7F90936F00CDCFF4
:10022000909170009D7F9093700091E09093B0004A
:100230009091B100987F94609093B1001092B300B8
:10024000BCCF2730A9F02830C9F0243089F680913E
:1002500080008F7D03C0809180008F778093800025
:10026000C7CF84B58F7784BDC3CF84B58F7DFBCFD7
:100270008091B0008F778093B000BACF8091B000AA
:100280008F7DF9CFAF92BF92CF92DF92EF92FF9224
:100290000F931F93CF93DF936C017B018B01040FAE
:1002A000151FEB015E01AE18BF08C017D10759F04A
:1002B0006991D601ED91FC910190F081E02DC6018C
:1002C0000995892B79F7C501DF91CF911F910F9186
:1002D000FF90EF90DF90CF90BF90AF900895FC011A
:1002E000538D448D252F30E0842F90E0821B930B9B
:1002F000541710F0CF96089501970895FC01918D41
:10030000828D981761F0A28DAE0FBF2FB11D5D9643
:100310008C91928D9F5F9F73928F90E008958FEFE5
:100320009FEF0895FC01918D828D981731F0828D99
:10033000E80FF11D858D90E008958FEF9FEF0895F0
:10034000FC01918D228D892F90E0805C9F4F821B54
:1003500091098F739927089585E291E00E94A00189
:1003600021E0892B09F420E0822F089580E090E0BD
:10037000892B29F00E94AC0181110C940000089592
:10038000FC01A48DA80FB92FB11DA35ABF4F2C910A
:10039000848D90E001968F739927848FA689B78901
:1003A0002C93A089B1898C91837080648C93938DF8
:1003B000848D981306C00288F389E02D80818F7D9B
:1003C00080830895EF92FF920F931F93CF93DF9353
:1003D000EC0181E0888F9B8D8C8D98131AC0E88981
:1003E000F989808185FF15C09FB7F894EE89FF8950
:1003F0006083E889F98980818370806480839FBFEE
:1004000081E090E0DF91CF911F910F91FF90EF90ED
:100410000895F62E0B8D10E00F5F1F4F0F731127FD
:10042000E02E8C8D8E110CC00FB607FCFACFE88938
:10043000F989808185FFF5CFCE010E94C001F1CFFF
:10044000EB8DEC0FFD2FF11DE35AFF4FF0829FB7AC
:10045000F8940B8FEA89FB8980818062CFCFCF939C
:10046000DF93EC01888D8823B9F0AA89BB89E889DC
:10047000F9898C9185FD03C0808186FD0DC00FB682
:1004800007FCF7CF8C9185FFF2CF808185FFEDCF00
:10049000CE010E94C001E9CFDF91CF9108951F9254
:1004A0000F920FB60F9211242F933F938F939F9328
:1004B000AF93BF938091C3019091C401A091C501F6
:1004C000B091C6013091C20123E0230F2D3758F5BA
:1004D0000196A11DB11D2093C2018093C301909389
:1004E000C401A093C501B093C6018091C70190914A
:1004F000C801A091C901B091CA010196A11DB11D09
:100500008093C7019093C801A093C901B093CA0119
:10051000BF91AF919F918F913F912F910F900FBEFF
:100520000F901F90189526E8230F0296A11DB11D6C
:10053000D2CF1F920F920FB60F9211242F933F9399
:100540004F935F936F937F938F939F93AF93BF93DB
:10055000EF93FF938091190190911A01A0911B01D3
:10056000B0911C01892B8A2B8B2BD1F19091140116
:10057000E0911501F0911601808189278083809197
:10058000190190911A01A0911B01B0911C0118163C
:1005900019061A061B069CF48091190190911A0104
:1005A000A0911B01B0911C010197A109B109809391
:1005B000190190931A01A0931B01B0931C01FF91A4
:1005C000EF91BF91AF919F918F917F916F915F91CB
:1005D0004F913F912F910F900FBE0F901F90189544
:1005E000809100010E94CC00EACF1F920F920FB6BB
:1005F0000F9211242F933F934F935F936F937F93A9
:100600008F939F93AF93BF93EF93FF9385E291E016
:100610000E94C001FF91EF91BF91AF919F918F9187
:100620007F916F915F914F913F912F910F900FBEEE
:100630000F901F9018951F920F920FB60F921124D2
:100640002F938F939F93EF93FF93E0913501F09158
:1006500036018081E0913B01F0913C0182FD1BC09D
:10066000908180913E018F5F8F7320913F018217AF
:1006700041F0E0913E01F0E0EB5DFE4F958F8093FD
:100680003E01FF91EF919F918F912F910F900FBE9F
:100690000F901F9018958081F4CF789484B5826074
:1006A00084BD84B5816084BD85B5826085BD85B516
:1006B000816085BD80916E00816080936E00109294
:1006C000810080918100826080938100809181000F
:1006D00081608093810080918000816080938000A0
:1006E0008091B10084608093B1008091B0008160FE
:1006F0008093B00080917A00846080937A0080912A
:100700007A00826080937A0080917A008160809381
:100710007A0080917A00806880937A001092C100FC
:1007200087E00E948800E0913501F091360182E077
:100730008083E0913101F09132011082E091330128
:10074000F09134018FEC808310923D01E0913901EA
:10075000F0913A0186E08083E0913701F091380111
:10076000808180618083E0913701F0913801808140
:1007700088608083E0913701F09138018081806842
:100780008083E0913701F091380180818F7D8083F3
:1007900008E910E04CEA242E40E0342ECC24CA9420
:1007A000DC2C760185E291E00E94A0011816190662
:1007B0000CF0CEC085E291E00E947E01813309F009
:1007C00000C180910001873029F5ECE7F0E0C49189
:1007D000C7FDBEC087E00E948800CC2309F488C012
:1007E000C23009F099C08091B100887F8360809306
:1007F000B10089EF8093B300C0921901D0921A0121
:10080000E0921B01F0921C01809170008260809345
:1008100070009EC08F3F09F09BC087E0809300016D
:10082000ECE7F0E0C491CF3F09F492C0C13011F180
:1008300048F0C23009F43BC0C7FD8AC087E00E947F
:100840008800CECF14BC15BC84B5826084BD85B54C
:10085000816085BDF8018491E82FF0E0EE0FFF1F65
:10086000E358FF4F85919491F10184918093180191
:10087000C0E0B0CF10928000109281008091810082
:1008800088608093810080918100816080938100E5
:10089000F8018491E82FF0E0EE0FFF1FE358FF4FBF
:1008A00085919491F10184918093170193CF1092D7
:1008B000B0001092B1008091B00082608093B000CF
:1008C0008091B10081608093B100F8018491E82F9C
:1008D000F0E0EE0FFF1FE358FF4F85919491909346
:1008E000160180931501F10184918093140172CF58
:1008F00085B5887F836085BD8CE787BDC092210167
:10090000D0922201E0922301F092240180916E00A6
:10091000826080936E001CC0C13009F04AC0809193
:100920008100887F8160809381008FE39FE19093B5
:10093000890080938800C0921D01D0921E01E09230
:100940001F01F092200180916F00826080936F0000
:100950000E94A7002B013C018AE0882E912CA12C3B
:10096000B12C0E94A7006419750986099709683E91
:10097000734081059105A8F391E0891A9108A108B7
:10098000B108E8EE4E0EE3E05E1E611C711C81149E
:100990009104A104B10429F780E090E0892B09F4C7
:1009A00001CF0E94AC01882309F4FCCE0E94000014
:1009B000F9CEC23021F0C111CBCF8FE39ECF8FE3B0
:1009C00019CF803329F687E00E94CC00C1CFE5E241
:1009D000F1E01382128288EE93E0A0E0B0E084831D
:1009E0009583A683B78385E091E09183808385EC2E
:1009F00090E09587848784EC90E09787868780ECE9
:100A000090E0918B808B81EC90E0938B828B82ECD9
:100A100090E0958B848B86EC90E0978B868B118E83
:100A2000128E138E148E0895EE0FFF1F0590F49111
:080A3000E02D0994F894FFCFBA
:100A3800FF00000000E20142016F012F02A0017EC9
:040A48000192010016
:00000001FF
