:100000000C9462000C948A000C948A000C948A0070
:100010000C948A000C948A000C948A000C948A0038
:100020000C948A000C948A000C948A000C948A0028
:100030000C948A000C948A000C948A000C948A0018
:100040000C94BF050C948A000C948A000C948A00CE
:100050000C948A000C948A000C948A000C948A00F8
:100060000C948A000C948A000000000024002700F1
:100070002A0000000000250028002B0000000000DE
:1000800023002600290004040404040404040202DA
:100090000202020203030303030301020408102007
:1000A0004080010204081020010204081020000012
:1000B0000008000201000003040700000000000027
:1000C0000000A40711241FBECFEFD8E0DEBFCDBFD4
:1000D00021E0A2E2B1E001C01D92AD36B207E1F726
:1000E00011E0A0E0B1E0E6E0F8E102C005900D9279
:1000F000A232B107D9F710E0C2E6D0E004C02197E0
:10010000FE010E94090AC136D107C9F70E940906FB
:100110000C94010C0C940000CF92DF92EF92FF92AE
:100120001F93CF93DF93EC018E818C3009F44DC087
:1001300038F48B30E1F060E070E080EC9FE73DC088
:1001400085518230C0F71A81612F70E0762F6627C3
:1001500066277F778B81682B90E080E00E943408CF
:100160002DEC3CEC4CEC5DE30E94710848C06A81C8
:1001700070E090E080E00E9434086B017C01CB814C
:10018000C7FF0AC0AC019B0160E070E080E89FEB14
:100190000E9466096B017C01CF706C2F70E090E0CB
:1001A00080E00E9436082DEC3CEC4CEC5DE30E94B4
:1001B0007108A70196010E946709DF91CF911F91F5
:1001C000FF90EF90DF90CF9008951A81612F70E03B
:1001D00090E080E00E9434086B017C016B816F70BD
:1001E00070E090E080E00E9436082DEC3CEC4CEC96
:1001F0005DE30E947108A70196010E94670917FF3D
:10020000DCCF9058DACFAF92BF92CF92DF92EF92CD
:10021000FF920F931F93CF93DF936C017B018B01B0
:10022000040F151FEB015E01AE18BF08C017D10700
:1002300059F06991D601ED91FC910190F081E02D8A
:10024000C6010995892B79F7C501DF91CF911F91DF
:100250000F91FF90EF90DF90CF90BF90AF900895F7
:10026000833081F028F4813099F08230A9F008952C
:100270008730A9F08830C9F08430B1F480918000D3
:100280008F7D03C0809180008F77809380000895D8
:1002900084B58F7784BD089584B58F7DFBCF809121
:1002A000B0008F778093B00008958091B0008F7D6B
:1002B000F9CFCF93DF93282F30E0F901E255FF4FBC
:1002C0008491F901E656FF4FD491F901EA57FF4FA7
:1002D000C491CC23A1F081110E943001EC2FF0E0F9
:1002E000EE0FFF1FE458FF4FA591B491EC91ED2361
:1002F00081E090E009F480E0DF91CF91089580E003
:1003000090E0FACF1F93CF93DF93282F30E0F901CD
:10031000E255FF4F8491F901E656FF4FD491F90160
:10032000EA57FF4FC491CC23A9F0162F81110E94E8
:100330003001EC2FF0E0EE0FFF1FEE58FF4FA591BC
:10034000B4918FB7F894EC91111108C0D095DE23C9
:10035000DC938FBFDF91CF911F910895DE2BF8CFF3
:10036000CF93DF9390E0FC01E656FF4F24918A572C
:100370009F4FFC0184918823C9F090E0880F991F5A
:10038000FC01E859FF4FA591B491FC01EE58FF4FD5
:10039000C591D49161110DC09FB7F8948C912095AF
:1003A00082238C938881282328839FBFDF91CF915C
:1003B0000895623051F49FB7F8943C91822F809554
:1003C00083238C93E8812E2BEFCF8FB7F894EC9199
:1003D0002E2B2C938FBFEACF3FB7F8948091230147
:1003E00090912401A0912501B091260126B5A89BEA
:1003F00005C02F3F19F00196A11DB11D3FBFBA2FB7
:10040000A92F982F8827BC01CD01620F711D811D76
:10041000911D42E0660F771F881F991F4A95D1F7FB
:1004200008958F929F92AF92BF92CF92DF92EF92F8
:10043000FF924B015C010E94EC016B017C010E9468
:10044000EC016C197D098E099F09683E7340810596
:100450009105A8F321E0821A9108A108B10888EE5D
:10046000C80E83E0D81EE11CF11C81149104A10484
:10047000B10429F7FF90EF90DF90CF90BF90AF903D
:100480009F908F900895CF92DF92EF92FF92CF933B
:10049000DF93DC011796CC911797D0E06111DC2F28
:1004A00018962C91189730E0220F331F24583F4F95
:1004B00050E040E0F90185919491FC01F080BA018F
:1004C00090E080E0EF2DEC23ED1310C04F5F5F4F05
:1004D0001D96CD90DD90ED90FC9050976C157D05AC
:1004E0008E059F0538F36FEF7FEFCB01DF91CF9142
:1004F000FF90EF90DF90CF9008958F929F92AF92F0
:10050000BF92CF92DF92EF92FF920F931F93CF9300
:10051000DF93CDB7DEB7C054D1400FB6F894DEBF3D
:100520000FBECDBF2FB7F89440914D0150914E01B1
:1005300060914F01709150012FBFFC010185128520
:10054000238534856A017B01C01AD10AE20AF30AC5
:1005500097018601003D174021053105B0F4FC01EB
:100560008189C05CDE4F0FB6F894DEBF0FBECDBFF1
:10057000DF91CF911F910F91FF90EF90DF90CF907F
:10058000BF90AF909F908F9008958C01FC014187A0
:1005900052876387748714821382128211821082B9
:1005A00062E085810E94B00161E070E080E090E04F
:1005B0000E94110261E0F80185810E94B00160E0B3
:1005C000F80185810E948201F8018681855182307F
:1005D00028F58BE291E10197F1F762E0F80185815E
:1005E0000E94B001F801828990E08230910538F0D4
:1005F000880F991F880F991F05970197F1F7F894B5
:1006000060E0C8010E9443026F3F7F4F8F4F9F4FB2
:1006100061F4F801118A789480E0A3CF64E170E07E
:1006200080E090E00E941102D8CF61E0C8010E94F2
:1006300043026F3F7F4F8F4F9F4F59F3CE0101967B
:100640007C015E019FEBA91A9EEFB90A670160E089
:10065000C8010E944302F601608371838283938301
:1006600061E0C8010E944302F601648375838683BA
:100670009783F8E0CF0ED11CCA14DB0441F77894BD
:1006800030E020E0F70180809180A280B380448137
:10069000558166817781FFEF8F169F06AF06BF06F3
:1006A00031F04F3F8FEF58076807780719F4F801CA
:1006B000118AB2CFF90183E0F595E7958A95E1F7C4
:1006C000E00FF11F8081880F84169506A606B706F5
:1006D000F0F080832F5F3F4FF8E0EF0EF11C2832DF
:1006E000310581F6F801448120818181280F33276B
:1006F000331F8281280F311D8381820F932F911D1B
:1007000099274817190699F681E0818B2ACF8160D5
:10071000E0CF089590E080E008950F931F93CF936A
:10072000DF93EC0188819981009759F02A813B8100
:100730002617370730F081E0DF91CF911F910F919D
:1007400008958B016F5F7F4F0E94340B009759F023
:10075000998388831B830A832C813D81232B59F73E
:10076000FC011082E8CF80E0E7CFEF92FF920F9379
:100770001F93CF93DF936115710541F480E0DF9102
:10078000CF911F910F91FF90EF9008954115510562
:10079000B1F07B01EC010C811D81040F151FB80124
:1007A0000E948D03882351F3288139818C819D819A
:1007B000B701820F931F0E94FA0B1D830C8381E007
:1007C000DECFCF93DF93EC0188819981009711F000
:1007D0000E94AB0A198218821D821C821B821A8217
:1007E000DF91CF910895CF93DF93EC0141E050E08A
:1007F00062E171E00E94B503811103C0CE010E9445
:10080000E103CE01DF91CF910895CF93DF93EC0107
:10081000198218821B821A821D821C826CE070E091
:100820000E948D03811105C0CE01DF91CF910C9400
:10083000E1038CE090E09D838C8364E171E088812A
:100840009981DF91CF910C94FA0BCF92DF92EF92C6
:10085000FF920F931F93CF93DF93CDB7DEB76297CD
:100860000FB6F894DEBF0FBECDBF8C01CB01F801EF
:100870001182108213821282158214824AE09E0134
:100880002F5F3F4F6901B9010E94FF07F6010190F8
:100890000020E9F731977F01EC18FD08B701C80186
:1008A0000E948D03811112C0C8010E94E10362966B
:1008B0000FB6F894DEBF0FBECDBFDF91CF911F9171
:1008C0000F91FF90EF90DF90CF900895F801F5829F
:1008D000E482B601808191810E94FA0BE8CFFC018D
:1008E00080819181009711F00C94AB0A0895CF9309
:1008F000DF93EC0160E08E810E94820161E08E81D5
:100900000E94820160E08E810E9482018BE891E06A
:100910000197F1F7DF91CF910895CF92DF92EF9297
:10092000FF920F931F93CF93DF936C017C0187E0BD
:10093000E80EF11CD0E0C0E0062F10E0B8010C2E4C
:1009400002C0759567950A94E2F76170F70181918D
:100950007F010E9482012196C430D10579F7C6013A
:10096000DF91CF911F910F91FF90EF90DF90CF908B
:100970000C947704CF92DF92EF92FF920F931F9324
:10098000CF93DF93EC01F62E642F8C810E948201BD
:100990008D818F3F19F060E00E9482010F2D10E0E1
:1009A0008F8584FF25C06E0187E0C80ED11CF12C15
:1009B000E12CB8010E2C02C0759567950A94E2F7F8
:1009C0006170F60181916F010E948201FFEFEF1AC1
:1009D000FF0A88E0E816F10461F7CE01DF91CF91BC
:1009E0001F910F91FF90EF90DF90CF900C947704C0
:1009F000B80184E0759567958A95E1F7CE010E946C
:100A00008D046F2DCE01DF91CF911F910F91FF903B
:100A1000EF90DF90CF900C948D0440E0682F81E53B
:100A200091E00C94BA04CF93DF93823029F4909133
:100A30006001986090936001809364011092650159
:100A400080E48093660180E18093670180E5809374
:100A5000680161E0809155010E94B00180915601CA
:100A60008F3F19F061E00E94B00161E08091570171
:100A70000E94B001C1E5D1E09E0121553140809135
:100A8000600184FD0BC084E090E0219628173907AF
:100A900044F461E08E810E94B001EECF88E090E0E6
:100AA000F4CF8BE39DE00197F1F760E08091550171
:100AB0000E94820160E0809157010E948201809132
:100AC00056018F3F19F060E00E9482018091600121
:100AD00084FD39C063E081E591E00E948D04CBE4A0
:100AE000D6E4CE010197F1F763E081E591E00E9441
:100AF0008D042197F1F763E081E591E00E948D0478
:100B000083E592E00197F1F762E081E591E00E94D0
:100B10008D048091600180620E940D0584E08093C5
:100B200061018CE00E940D0581E00E940D058BE3C0
:100B30009FE10197F1F782E08093620186E0DF9107
:100B4000CF910C940D0580620E940D058BE496E414
:100B50000197F1F78091600180620E940D0583E5A5
:100B600092E00197F1F78091600180620E940D058B
:100B7000D0CF41E00E94BA0481E090E008951F9236
:100B80000F920FB60F9211242F933F938F939F9341
:100B9000AF93BF9380914D0190914E01A0914F0171
:100BA000B09150013091220123E0230F2D3758F5E9
:100BB0000196A11DB11D2093220180934D019093B8
:100BC0004E01A0934F01B093500180912301909169
:100BD0002401A0912501B09126010196A11DB11D0E
:100BE0008093230190932401A0932501B0932601C3
:100BF000BF91AF919F918F913F912F910F900FBE19
:100C00000F901F90189526E8230F0296A11DB11D85
:100C1000D2CFCF93DF93CDB7DEB72E970FB6F89430
:100C2000DEBF0FBECDBF789484B5826084BD84B52D
:100C3000816084BD85B5826085BD85B5816085BDD7
:100C400080916E00816080936E001092810080918F
:100C50008100826080938100809181008160809317
:100C60008100809180008160809380008091B1003C
:100C700084608093B1008091B00081608093B00067
:100C800080917A00846080937A0080917A008260FB
:100C900080937A0080917A00816080937A008091BD
:100CA0007A00806880937A001092C10060E088E04A
:100CB0000E94B00160E089E00E94B00162E0809192
:100CC0003F010E94B0012FB7F89480914D0190919F
:100CD0004E01A0914F01B09150012FBF805D974010
:100CE000A109B1098093430190934401A093450168
:100CF000B093460117E310934C0162E080912C0100
:100D00000E94B0012FB7F89480914D0190914E014F
:100D1000A0914F01B09150012FBF805D9740A10974
:100D2000B1098093300190933101A0933201B093C7
:100D300033011093390182E00E94130500E010E0B6
:100D40004FEDF42E88E00E945901892B09F065C00F
:100D50008AE391E00E947D02812C912C30ECA32E3D
:100D60003FE7B32E882331F08AE391E00E948C00A4
:100D70004B015C01E1E0809164018111E0E0E195CB
:100D8000F0E0EF5AFE4F848980680E940D05C5018E
:100D9000B4010E94D309CE0101960E942504CE0120
:100DA00007960E9405044D815E8169817A81CE019A
:100DB00007960E94B503811104C0CE0107960E94D8
:100DC000E103FD861E8641E050E0BE01635F7F4F78
:100DD000CE0107960E94B503811104C0CE0107968B
:100DE0000E94E103CE0107960E94F303FC014481B7
:100DF00055816081718181E591E00E940301CE01FE
:100E000007960E946F04CE0101960E946F0462E370
:100E100070E080E090E00E94110288E00E94590199
:100E2000019709F065C087E291E00E947D02812C64
:100E3000912C20ECA22E2FE7B22E882331F087E2EE
:100E400091E00E948C004B015C01E1E08091640123
:100E50008111E0E0E195F0E0EF5AFE4F848980686F
:100E60000E940D05C501B4010E94D309CE0101966F
:100E70000E942504CE0107960E9405044D815E81E3
:100E800069817A81CE0107960E94B503811104C061
:100E9000CE0107960E94E103FD861E8641E050E0E8
:100EA000BE01635F7F4FCE0107960E94B50381119B
:100EB00004C0CE0107960E94E103CE0107960E946E
:100EC000F303FC01448155816081718181E591E0EA
:100ED0000E940301CE0107960E946F04CE01019685
:100EE0000E946F0462E370E080E090E00E941102D3
:100EF00089E00E945901019701F590E1C92ED12C9A
:100F00008CE10E940D0564E670E080E090E00E94B4
:100F10001102F1E0CF1AD10899F780E1C82ED12C47
:100F200088E10E940D0564E670E080E090E00E9498
:100F3000110281E0C81AD10899F70115110509F4C9
:100F400001CF0E940000FECECF93E1E5F1E01382D5
:100F500012828AE091E0918380838CE084838FEF1A
:100F60008583CBE0C68385E0878384E0808783E048
:100F7000818782E0828713861486158616861786F7
:100F800081E00E941305AAE3B1E086E015968C93F8
:100F900015971696CC931697E0EAF0E0E491179631
:100FA000EC931797ECE8F0E0E4911896EC9318971F
:100FB00040E85EE360E070E01D964D935D936D93B5
:100FC0007C935097A7E2B1E087E015968C93159734
:100FD0001696CC931697E1EAF0E0E4911796EC931D
:100FE0001797EDE8F0E0E4911896EC9318971D96AA
:100FF0004D935D936D937C935097CF910895BB274C
:101000004A3031F4992322F4BDE2909581959F4FA7
:101010000C940B08BB27FB015527AA27880F991FA3
:10102000AA1FA41710F0A41B83955051B9F7A05D17
:10103000AA3308F0A95DA193009779F7B111B19394
:101040001192CB010C942408DC01FC01672F7191F3
:101050007723E1F7329704C07C916D93708362919E
:10106000AE17BF07C8F30895E89409C097FB3EF494
:1010700090958095709561957F4F8F4F9F4F9923E5
:10108000A9F0F92F96E9BB279395F6958795779563
:101090006795B795F111F8CFFAF4BB0F11F460FF23
:1010A0001BC06F5F7F4F8F4F9F4F16C0882311F07B
:1010B00096E911C0772321F09EE8872F762F05C08F
:1010C000662371F096E8862F70E060E02AF09A952A
:1010D000660F771F881FDAF7880F9695879597F91F
:1010E00008950E9484080C94F5080E94E70838F0DF
:1010F0000E94EE0820F0952311F00C94DE080C9469
:10110000E40811240C9429090E94060970F3959FA4
:10111000C1F3950F50E0551F629FF001729FBB27EE
:10112000F00DB11D639FAA27F00DB11DAA1F649F8A
:101130006627B00DA11D661F829F2227B00DA11D3D
:10114000621F739FB00DA11D621F839FA00D611DC3
:10115000221F749F3327A00D611D231F849F600DE4
:10116000211D822F762F6A2F11249F5750409AF00D
:10117000F1F088234AF0EE0FFF1FBB1F661F771F99
:10118000881F91505040A9F79E3F510580F00C9464
:10119000DE080C9429095F3FE4F3983ED4F386956A
:1011A00077956795B795F795E7959F5FC1F7FE2B04
:1011B000880F911D9695879597F9089597F99F67E0
:1011C00080E870E060E008959FEF80EC08950024CF
:1011D0000A941616170618060906089500240A949C
:1011E00012161306140605060895092E0394000C22
:1011F00011F4882352F0BB0F40F4BF2B11F460FFB1
:1012000004C06F5F7F4F8F4F9F4F089557FD9058D9
:10121000440F551F59F05F3F71F04795880F97FBBA
:10122000991F61F09F3F79F0879508951216130674
:101230001406551FF2CF4695F1DF08C016161706A3
:101240001806991FF1CF86957105610508940895D8
:10125000E894BB2766277727CB0197F908952F924B
:101260003F924F925F926F927F928F929F92AF9236
:10127000BF92CF92DF92EF92FF920F931F93CF9383
:10128000DF93CDB7DEB7CA1BDB0B0FB6F894DEBF1A
:101290000FBECDBF09942A88398848885F846E8440
:1012A0007D848C849B84AA84B984C884DF80EE808A
:1012B000FD800C811B81AA81B981CE0FD11D0FB693
:1012C000F894DEBF0FBECDBFED0108955058BB2787
:1012D000AA270E947E090C94F5080E94E70838F0BE
:1012E0000E94EE0820F039F49F3F19F426F40C9484
:1012F000E4080EF4E095E7FB0C94DE08E92F0E9469
:10130000060958F3BA17620773078407950720F098
:1013100079F4A6F50C9428090EF4E0950B2EBA2F5B
:10132000A02D0B01B90190010C01CA01A0011124EB
:10133000FF27591B99F0593F50F4503E68F11A1697
:10134000F040A22F232F342F4427585FF3CF469528
:1013500037952795A795F0405395C9F77EF41F164A
:10136000BA0B620B730B840BBAF09150A1F0FF0F14
:10137000BB1F661F771F881FC2F70EC0BA0F621F00
:10138000731F841F48F4879577956795B795F795F0
:101390009E3F08F0B0CF9395880F08F09927EE0F85
:1013A0009795879508950E94DA096894B1110C9475
:1013B000290908950E940E0988F09F5798F0B92FC7
:1013C0009927B751B0F0E1F0660F771F881F991F7A
:1013D0001AF0BA95C9F714C0B13091F00E942809EB
:1013E000B1E008950C942809672F782F8827B85FFB
:1013F00039F0B93FCCF3869577956795B395D9F7D2
:101400003EF490958095709561957F4F8F4F9F4FDB
:101410000895EE0FFF1F0590F491E02D09940F93AE
:101420001F93CF93DF938230910510F482E090E018
:10143000E0916B01F0916C0130E020E0B0E0A0E0C1
:10144000309799F42115310509F44AC0281B390B4E
:1014500024303105D8F58A819B816115710589F1A8
:10146000FB0193838283FE0111C04081518102817F
:10147000138148175907E0F04817590799F4109756
:1014800061F012960C93129713961C933296CF012B
:10149000DF91CF911F910F91089500936B011093ED
:1014A0006C01F4CF2115310551F04217530738F084
:1014B000A901DB019A01BD01DF01F801C1CFEF01F4
:1014C000F9CF90936C0180936B01CDCFFE01E20FB9
:1014D000F31F819391932250310939832883D7CF09
:1014E0002091690130916A01232B41F4209102017E
:1014F0003091030130936A0120936901209100012A
:10150000309101012115310541F42DB73EB74091CD
:10151000040150910501241B350BE0916901F09104
:101520006A01E217F307A0F42E1B3F0B28173907B7
:1015300078F0AC014E5F5F4F2417350748F04E0F2F
:101540005F1F50936A0140936901819391939FCFEC
:10155000F0E0E0E09CCFCF93DF930097E9F0FC014F
:10156000329713821282A0916B01B0916C01ED0150
:1015700030E020E01097A1F420813181820F931F89
:101580002091690130916A012817390709F061C07B
:10159000F0936A01E0936901DF91CF910895EA0128
:1015A000CE17DF07E8F54A815B819E0141155105A1
:1015B000B1F7E901FB83EA8349915991C40FD51F23
:1015C000EC17FD0761F4808191810296840F951FCD
:1015D000E90199838883828193819B838A83F0E0E8
:1015E000E0E012968D919C9113970097B9F52D919B
:1015F0003C911197CD010296820F931F20916901B2
:1016000030916A012817390739F6309751F5109251
:101610006C0110926B01B0936A01A0936901BCCF79
:10162000D383C28340815181840F951FC817D90786
:1016300061F44E5F5F4F88819981480F591F518334
:1016400040838A819B81938382832115310509F030
:10165000B0CFF0936C01E0936B019ECFFD01DC01F4
:10166000C0CF13821282D7CFB0E0A0E0EAE3FBE064
:101670000C9431098C01009751F4CB010E940F0AA0
:101680008C01C801CDB7DEB7E0E10C944D09FC0137
:10169000E60FF71F9C0122503109E217F30708F407
:1016A0009DC0D901CD91DC911197C617D70798F04D
:1016B000C530D10530F3CE0104978617970708F39C
:1016C000C61BD70B2297C193D1936D937C93CF0107
:1016D0000E94AB0AD6CF5B01AC1ABD0A4C018C0E3E
:1016E0009D1EA0916B01B0916C01512C412CF12CED
:1016F000E12C109731F58091690190916A0188156C
:10170000990509F05CC04616570608F058C080914C
:10171000000190910101009741F48DB79EB740916F
:10172000040150910501841B950BE817F90708F097
:1017300055C0F0936A01E0936901F90171836083F8
:10174000A0CF8D919C91119712966C901297139641
:101750007C901397A815B90559F56C0142E0C40EA9
:10176000D11CCA14DB0420F1AC014A195B09DA016F
:101770001296159780F06282738251834083D9015B
:101780006D937C93E114F10471F0D7011396FC93EF
:10179000EE93129776CF22968C0F9D1FF9019183BD
:1017A0008083F301EFCFF0936C01E0936B0169CF7D
:1017B0004816590608F42C017D01D3019ACFCB01BC
:1017C0000E940F0A7C01009749F0AE01B8010E9407
:1017D000F10BC8010E94AB0A870153CF10E000E073
:1017E00050CFFB01DC0102C001900D9241505040EE
:1017F000D8F70895FB01DC0101900D920020E1F77C
:061800000895F894FFCFEB
:1018060000006D01800000000000B90503018A0395
:101816008903430054656D70657261747572653A2B
:021826000000C0
:00000001FF
